{
  "contractName": "Production",
  "abi": [
    {
      "inputs": [],
      "payable": false,
      "stateMutability": "nonpayable",
      "type": "constructor"
    },
    {
      "anonymous": false,
      "inputs": [
        {
          "indexed": false,
          "internalType": "uint256",
          "name": "id",
          "type": "uint256"
        },
        {
          "indexed": false,
          "internalType": "string",
          "name": "articleName",
          "type": "string"
        },
        {
          "indexed": false,
          "internalType": "string",
          "name": "articleContent",
          "type": "string"
        }
      ],
      "name": "addedArticleEvent",
      "type": "event"
    },
    {
      "anonymous": false,
      "inputs": [
        {
          "indexed": true,
          "internalType": "uint256",
          "name": "mandatsCount",
          "type": "uint256"
        }
      ],
      "name": "addedMandatEvent",
      "type": "event"
    },
    {
      "anonymous": false,
      "inputs": [
        {
          "indexed": false,
          "internalType": "uint256",
          "name": "id",
          "type": "uint256"
        },
        {
          "indexed": false,
          "internalType": "string",
          "name": "name",
          "type": "string"
        },
        {
          "indexed": false,
          "internalType": "uint256",
          "name": "producerShare",
          "type": "uint256"
        },
        {
          "indexed": false,
          "internalType": "address",
          "name": "owner",
          "type": "address"
        }
      ],
      "name": "addedProducerEvent",
      "type": "event"
    },
    {
      "anonymous": false,
      "inputs": [
        {
          "indexed": false,
          "internalType": "uint256",
          "name": "id",
          "type": "uint256"
        },
        {
          "indexed": false,
          "internalType": "uint256",
          "name": "_revenueAmount",
          "type": "uint256"
        },
        {
          "indexed": false,
          "internalType": "uint256",
          "name": "revenuesTotal",
          "type": "uint256"
        },
        {
          "indexed": false,
          "internalType": "address",
          "name": "owner",
          "type": "address"
        },
        {
          "indexed": false,
          "internalType": "uint256",
          "name": "revenueTimestamp",
          "type": "uint256"
        }
      ],
      "name": "addedRevenueEvent",
      "type": "event"
    },
    {
      "constant": true,
      "inputs": [
        {
          "internalType": "uint256",
          "name": "",
          "type": "uint256"
        }
      ],
      "name": "articles",
      "outputs": [
        {
          "internalType": "uint256",
          "name": "id",
          "type": "uint256"
        },
        {
          "internalType": "string",
          "name": "articleTitle",
          "type": "string"
        },
        {
          "internalType": "string",
          "name": "articleContent",
          "type": "string"
        }
      ],
      "payable": false,
      "stateMutability": "view",
      "type": "function"
    },
    {
      "constant": true,
      "inputs": [],
      "name": "articlesCount",
      "outputs": [
        {
          "internalType": "uint256",
          "name": "",
          "type": "uint256"
        }
      ],
      "payable": false,
      "stateMutability": "view",
      "type": "function"
    },
    {
      "constant": true,
      "inputs": [
        {
          "internalType": "address",
          "name": "",
          "type": "address"
        }
      ],
      "name": "listProducers",
      "outputs": [
        {
          "internalType": "bool",
          "name": "",
          "type": "bool"
        }
      ],
      "payable": false,
      "stateMutability": "view",
      "type": "function"
    },
    {
      "constant": true,
      "inputs": [
        {
          "internalType": "uint256",
          "name": "",
          "type": "uint256"
        }
      ],
      "name": "mandats",
      "outputs": [
        {
          "internalType": "uint256",
          "name": "id",
          "type": "uint256"
        },
        {
          "internalType": "string",
          "name": "mandatType",
          "type": "string"
        }
      ],
      "payable": false,
      "stateMutability": "view",
      "type": "function"
    },
    {
      "constant": true,
      "inputs": [],
      "name": "mandatsCount",
      "outputs": [
        {
          "internalType": "uint256",
          "name": "",
          "type": "uint256"
        }
      ],
      "payable": false,
      "stateMutability": "view",
      "type": "function"
    },
    {
      "constant": true,
      "inputs": [],
      "name": "name",
      "outputs": [
        {
          "internalType": "string",
          "name": "",
          "type": "string"
        }
      ],
      "payable": false,
      "stateMutability": "view",
      "type": "function"
    },
    {
      "constant": true,
      "inputs": [],
      "name": "newRevenuesTotal",
      "outputs": [
        {
          "internalType": "uint256",
          "name": "",
          "type": "uint256"
        }
      ],
      "payable": false,
      "stateMutability": "view",
      "type": "function"
    },
    {
      "constant": true,
      "inputs": [
        {
          "internalType": "uint256",
          "name": "",
          "type": "uint256"
        }
      ],
      "name": "producers",
      "outputs": [
        {
          "internalType": "uint256",
          "name": "id",
          "type": "uint256"
        },
        {
          "internalType": "string",
          "name": "name",
          "type": "string"
        },
        {
          "internalType": "uint256",
          "name": "producerShare",
          "type": "uint256"
        }
      ],
      "payable": false,
      "stateMutability": "view",
      "type": "function"
    },
    {
      "constant": true,
      "inputs": [],
      "name": "producersCount",
      "outputs": [
        {
          "internalType": "uint256",
          "name": "",
          "type": "uint256"
        }
      ],
      "payable": false,
      "stateMutability": "view",
      "type": "function"
    },
    {
      "constant": true,
      "inputs": [
        {
          "internalType": "uint256",
          "name": "",
          "type": "uint256"
        }
      ],
      "name": "revenues",
      "outputs": [
        {
          "internalType": "uint256",
          "name": "id",
          "type": "uint256"
        },
        {
          "internalType": "uint256",
          "name": "revenueAmount",
          "type": "uint256"
        },
        {
          "internalType": "uint256",
          "name": "revenueTimestamp",
          "type": "uint256"
        }
      ],
      "payable": false,
      "stateMutability": "view",
      "type": "function"
    },
    {
      "constant": true,
      "inputs": [],
      "name": "revenuesCount",
      "outputs": [
        {
          "internalType": "uint256",
          "name": "",
          "type": "uint256"
        }
      ],
      "payable": false,
      "stateMutability": "view",
      "type": "function"
    },
    {
      "constant": true,
      "inputs": [],
      "name": "revenuesTotal",
      "outputs": [
        {
          "internalType": "uint256",
          "name": "",
          "type": "uint256"
        }
      ],
      "payable": false,
      "stateMutability": "view",
      "type": "function"
    },
    {
      "constant": false,
      "inputs": [
        {
          "internalType": "string",
          "name": "_name",
          "type": "string"
        },
        {
          "internalType": "uint256",
          "name": "_producerShare",
          "type": "uint256"
        }
      ],
      "name": "addProducer",
      "outputs": [],
      "payable": false,
      "stateMutability": "nonpayable",
      "type": "function"
    },
    {
      "constant": true,
      "inputs": [
        {
          "internalType": "uint256",
          "name": "producerID",
          "type": "uint256"
        }
      ],
      "name": "getProducer",
      "outputs": [
        {
          "internalType": "uint256",
          "name": "",
          "type": "uint256"
        },
        {
          "internalType": "string",
          "name": "",
          "type": "string"
        },
        {
          "internalType": "uint256",
          "name": "",
          "type": "uint256"
        }
      ],
      "payable": false,
      "stateMutability": "view",
      "type": "function"
    },
    {
      "constant": false,
      "inputs": [
        {
          "internalType": "string",
          "name": "_mandatType",
          "type": "string"
        }
      ],
      "name": "addMandat",
      "outputs": [],
      "payable": false,
      "stateMutability": "nonpayable",
      "type": "function"
    },
    {
      "constant": false,
      "inputs": [
        {
          "internalType": "uint256",
          "name": "_revenueAmount",
          "type": "uint256"
        }
      ],
      "name": "addRevenue",
      "outputs": [],
      "payable": false,
      "stateMutability": "nonpayable",
      "type": "function"
    },
    {
      "constant": false,
      "inputs": [
        {
          "internalType": "string",
          "name": "articleTitle",
          "type": "string"
        },
        {
          "internalType": "string",
          "name": "articleContent",
          "type": "string"
        }
      ],
      "name": "addArticle",
      "outputs": [],
      "payable": false,
      "stateMutability": "nonpayable",
      "type": "function"
    }
  ],
  "bytecode": "0x6080604052600060075560006009553480156200001b57600080fd5b506040518060400160405280600f81526020017f446170702050726f64756374696f6e0000000000000000000000000000000000815250600090805190602001906200006992919062000070565b506200011f565b828054600181600116156101000203166002900490600052602060002090601f016020900481019282601f10620000b357805160ff1916838001178555620000e4565b82800160010185558215620000e4579182015b82811115620000e3578251825591602001919060010190620000c6565b5b509050620000f39190620000f7565b5090565b6200011c91905b8082111562000118576000816000905550600101620000fe565b5090565b90565b61137c806200012f6000396000f3fe608060405234801561001057600080fd5b506004361061010b5760003560e01c80636ec67ec9116100a2578063d293616d11610071578063d293616d14610761578063d76fc0421461077f578063d95894d81461079d578063e53142e2146107ed578063edcfafe61461080b5761010b565b80636ec67ec91461051e578063922cec19146106705780639b68ade71461068e578063bb396f3c146107435761010b565b80633a510500116100de5780633a5105001461031a5780633bbd42b6146103cf5780634eb406761461042b57806363ec512d146104f05761010b565b806306fdde031461011057806314ef8a521461019357806315956fc71461024157806339b1cc1e1461025f575b600080fd5b610118610925565b6040518080602001828103825283818151815260200191508051906020019080838360005b8381101561015857808201518184015260208101905061013d565b50505050905090810190601f1680156101855780820380516001836020036101000a031916815260200191505b509250505060405180910390f35b6101bf600480360360208110156101a957600080fd5b81019080803590602001909291905050506109c3565b6040518083815260200180602001828103825283818151815260200191508051906020019080838360005b838110156102055780820151818401526020810190506101ea565b50505050905090810190601f1680156102325780820380516001836020036101000a031916815260200191505b50935050505060405180910390f35b610249610a7f565b6040518082815260200191505060405180910390f35b6103186004803603602081101561027557600080fd5b810190808035906020019064010000000081111561029257600080fd5b8201836020820111156102a457600080fd5b803590602001918460018302840111640100000000831117156102c657600080fd5b91908080601f016020809104026020016040519081016040528093929190818152602001838380828437600081840152601f19601f820116905080830192505050505050509192919290505050610a85565b005b6103466004803603602081101561033057600080fd5b8101908080359060200190929190505050610b1f565b6040518084815260200180602001838152602001828103825284818151815260200191508051906020019080838360005b83811015610392578082015181840152602081019050610377565b50505050905090810190601f1680156103bf5780820380516001836020036101000a031916815260200191505b5094505050505060405180910390f35b610411600480360360208110156103e557600080fd5b81019080803573ffffffffffffffffffffffffffffffffffffffff169060200190929190505050610bf3565b604051808215151515815260200191505060405180910390f35b6104ee6004803603604081101561044157600080fd5b810190808035906020019064010000000081111561045e57600080fd5b82018360208201111561047057600080fd5b8035906020019184600183028401116401000000008311171561049257600080fd5b91908080601f016020809104026020016040519081016040528093929190818152602001838380828437600081840152601f19601f82011690508083019250505050505050919291929080359060200190929190505050610c13565b005b61051c6004803603602081101561050657600080fd5b8101908080359060200190929190505050610d8c565b005b61066e6004803603604081101561053457600080fd5b810190808035906020019064010000000081111561055157600080fd5b82018360208201111561056357600080fd5b8035906020019184600183028401116401000000008311171561058557600080fd5b91908080601f016020809104026020016040519081016040528093929190818152602001838380828437600081840152601f19601f820116905080830192505050505050509192919290803590602001906401000000008111156105e857600080fd5b8201836020820111156105fa57600080fd5b8035906020019184600183028401116401000000008311171561061c57600080fd5b91908080601f016020809104026020016040519081016040528093929190818152602001838380828437600081840152601f19601f820116905080830192505050505050509192919290505050610e9c565b005b61067861103e565b6040518082815260200191505060405180910390f35b6106ba600480360360208110156106a457600080fd5b8101908080359060200190929190505050611044565b6040518084815260200180602001838152602001828103825284818151815260200191508051906020019080838360005b838110156107065780820151818401526020810190506106eb565b50505050905090810190601f1680156107335780820380516001836020036101000a031916815260200191505b5094505050505060405180910390f35b61074b611106565b6040518082815260200191505060405180910390f35b61076961110c565b6040518082815260200191505060405180910390f35b610787611112565b6040518082815260200191505060405180910390f35b6107c9600480360360208110156107b357600080fd5b8101908080359060200190929190505050611118565b60405180848152602001838152602001828152602001935050505060405180910390f35b6107f5611142565b6040518082815260200191505060405180910390f35b6108376004803603602081101561082157600080fd5b8101908080359060200190929190505050611148565b604051808481526020018060200180602001838103835285818151815260200191508051906020019080838360005b83811015610881578082015181840152602081019050610866565b50505050905090810190601f1680156108ae5780820380516001836020036101000a031916815260200191505b50838103825284818151815260200191508051906020019080838360005b838110156108e75780820151818401526020810190506108cc565b50505050905090810190601f1680156109145780820380516001836020036101000a031916815260200191505b509550505050505060405180910390f35b60008054600181600116156101000203166002900480601f0160208091040260200160405190810160405280929190818152602001828054600181600116156101000203166002900480156109bb5780601f10610990576101008083540402835291602001916109bb565b820191906000526020600020905b81548152906001019060200180831161099e57829003601f168201915b505050505081565b6004602052806000526040600020600091509050806000015490806001018054600181600116156101000203166002900480601f016020809104026020016040519081016040528092919081815260200182805460018160011615610100020316600290048015610a755780601f10610a4a57610100808354040283529160200191610a75565b820191906000526020600020905b815481529060010190602001808311610a5857829003601f168201915b5050505050905082565b60085481565b6005600081548092919060010191905055506040518060400160405280600554815260200182815250600460006005548152602001908152602001600020600082015181600001556020820151816001019080519060200190610ae99291906112a2565b509050506005547f6ca3a65978dcb1dac807ab70127707e9de68e905f32dce40db01af62a9322f7d60405160405180910390a250565b600060606000806002600086815260200190815260200160002090508060000154816001018260020154818054600181600116156101000203166002900480601f016020809104026020016040519081016040528092919081815260200182805460018160011615610100020316600290048015610bde5780601f10610bb357610100808354040283529160200191610bde565b820191906000526020600020905b815481529060010190602001808311610bc157829003601f168201915b50505050509150935093509350509193909250565b60016020528060005260406000206000915054906101000a900460ff1681565b6000825111610c2157600080fd5b60008111610c2e57600080fd5b6003600081548092919060010191905055506040518060600160405280600354815260200183815260200182815250600260006003548152602001908152602001600020600082015181600001556020820151816001019080519060200190610c989291906112a2565b50604082015181600201559050507fb2ad2a557c1e5c409b8f438c834e7d7f05428b45975aab0ee496bf16b390c43c60035483833360405180858152602001806020018481526020018373ffffffffffffffffffffffffffffffffffffffff1673ffffffffffffffffffffffffffffffffffffffff168152602001828103825285818151815260200191508051906020019080838360005b83811015610d4b578082015181840152602081019050610d30565b50505050905090810190601f168015610d785780820380516001836020036101000a031916815260200191505b509550505050505060405180910390a15050565b60008111610d9957600080fd5b600960008154809291906001019190505550806007540160088190555060085460078190555060405180606001604052806009548152602001828152602001428152506006600060095481526020019081526020016000206000820151816000015560208201518160010155604082015181600201559050507fd1160c528182b73199ffcc5f84ee4a10acbe4009e701a9f63cc550df5bb97a13600954826007543342604051808681526020018581526020018481526020018373ffffffffffffffffffffffffffffffffffffffff1673ffffffffffffffffffffffffffffffffffffffff1681526020018281526020019550505050505060405180910390a150565b600b600081548092919060010191905055506040518060600160405280600b54815260200183815260200182815250600a6000600b548152602001908152602001600020600082015181600001556020820151816001019080519060200190610f069291906112a2565b506040820151816002019080519060200190610f239291906112a2565b509050507f6b37acb389598eb4f62b80c6ea9fa4af633523d951e76e7a42cb90a5a3ceafcb600b548383604051808481526020018060200180602001838103835285818151815260200191508051906020019080838360005b83811015610f97578082015181840152602081019050610f7c565b50505050905090810190601f168015610fc45780820380516001836020036101000a031916815260200191505b50838103825284818151815260200191508051906020019080838360005b83811015610ffd578082015181840152602081019050610fe2565b50505050905090810190601f16801561102a5780820380516001836020036101000a031916815260200191505b509550505050505060405180910390a15050565b60095481565b6002602052806000526040600020600091509050806000015490806001018054600181600116156101000203166002900480601f0160208091040260200160405190810160405280929190818152602001828054600181600116156101000203166002900480156110f65780601f106110cb576101008083540402835291602001916110f6565b820191906000526020600020905b8154815290600101906020018083116110d957829003601f168201915b5050505050908060020154905083565b600b5481565b60055481565b60075481565b60066020528060005260406000206000915090508060000154908060010154908060020154905083565b60035481565b600a602052806000526040600020600091509050806000015490806001018054600181600116156101000203166002900480601f0160208091040260200160405190810160405280929190818152602001828054600181600116156101000203166002900480156111fa5780601f106111cf576101008083540402835291602001916111fa565b820191906000526020600020905b8154815290600101906020018083116111dd57829003601f168201915b505050505090806002018054600181600116156101000203166002900480601f0160208091040260200160405190810160405280929190818152602001828054600181600116156101000203166002900480156112985780601f1061126d57610100808354040283529160200191611298565b820191906000526020600020905b81548152906001019060200180831161127b57829003601f168201915b5050505050905083565b828054600181600116156101000203166002900490600052602060002090601f016020900481019282601f106112e357805160ff1916838001178555611311565b82800160010185558215611311579182015b828111156113105782518255916020019190600101906112f5565b5b50905061131e9190611322565b5090565b61134491905b80821115611340576000816000905550600101611328565b5090565b9056fea265627a7a72315820f98652844ccb3e851d10c1c8fbd80aa2814ae1e0b0e1030242d2067c45a6cb9964736f6c634300050c0032",
  "source": "pragma solidity ^0.5.12;\n\ncontract Production {\n\nstring public name;\n\n\n\n\n    // Model a Producer\n    struct Producer {\n        uint id;\n        string name;\n        uint producerShare;\n    }\n\n    // Model a Mandat\n    struct Mandat {\n        uint id;\n        string mandatType;\n    }\n\n\n    // Model a Revenue\n    struct Revenue {\n        uint id;\n        uint revenueAmount;\n        uint revenueTimestamp;\n    }\n\n    // Model an Article\n    struct Article {\n        uint id;\n        string articleTitle;\n        string articleContent;\n    }\n\n\n\n    // Store accounts that have been added\n    mapping(address => bool) public listProducers;\n    // Store Producers\n    // Fetch Producers\n    mapping(uint => Producer) public producers;\n    // Store Producers Count\n    uint public producersCount;\n    //addedProducer event\n    event addedProducerEvent (\n        uint id,\n        string name,\n        uint producerShare,\n        address owner\n    );\n\n    // Store Mandats\n    // Fetch Mandats\n    mapping(uint => Mandat) public mandats;\n    // Store Mandats Count\n    uint public mandatsCount;\n    //addedMandat event\n    event addedMandatEvent (\n        uint indexed mandatsCount\n    );\n\n    // Store Revenues\n    // Fetch Revenues\n    mapping(uint => Revenue) public revenues;\n    // store Revenues Total\n    uint public revenuesTotal = 0;\n    uint public newRevenuesTotal;\n    // Store Revenues Count\n    uint public revenuesCount = 0;\n    //addedRevenue event\n    event addedRevenueEvent (\n        uint id,\n        uint _revenueAmount,\n        uint revenuesTotal,\n        address owner, \n        uint revenueTimestamp\n    );\n\n    // Store Articles\n    // Fetch Articles\n    mapping(uint => Article) public articles;\n    // Store Article Count\n    uint public articlesCount;\n    //addeArticle event\n    event addedArticleEvent (\n        uint id,\n        string articleName,\n        string articleContent\n\n    );\n\n\n\n    constructor () public {\n        name = \"Dapp Production\";\n\n        //addProducer(\"Steven Spielberg\", 50);\n        //addProducer(\"Producteur 2\", 50);\n        //addMandat(\"Droits TV\")\n        //addRevenue(\"5000\")\n    }\n\n    function addProducer (string memory _name, uint _producerShare) public {\n          // Require a valid name\n        require(bytes(_name).length > 0);\n        // Require a valid producerShare\n        require(_producerShare > 0);\n        producersCount ++;\n        producers[producersCount] = Producer(producersCount, _name, _producerShare);\n        //trigger added producer event\n        emit addedProducerEvent(producersCount, _name, _producerShare, msg.sender);\n\n\n    }\n\n    function getProducer(uint producerID) public view\n    returns (uint, string memory, uint) {\n\n        Producer storage producer = producers[producerID];\n        return (producer.id, producer.name, producer.producerShare);\n    }\n\n\n    function addMandat (string memory _mandatType) public {\n        mandatsCount ++;\n        mandats[mandatsCount] = Mandat(mandatsCount, _mandatType);\n        //trigger added mandat event\n        emit addedMandatEvent(mandatsCount);\n\n    }\n\n    function addRevenue (uint _revenueAmount) public {\n        // Require a valid _revenueAmount\n        require(_revenueAmount > 0);\n        revenuesCount ++;\n        newRevenuesTotal = revenuesTotal + _revenueAmount;\n        revenuesTotal = newRevenuesTotal;\n        revenues[revenuesCount] = Revenue(revenuesCount, _revenueAmount, block.timestamp);\n        //trigger added revenue event\n        emit addedRevenueEvent(revenuesCount, _revenueAmount, revenuesTotal, msg.sender, block.timestamp);\n\n    }\n\n    function addArticle (string memory articleTitle, string memory articleContent) public {\n        articlesCount ++;\n        articles[articlesCount] = Article(articlesCount, articleTitle, articleContent);\n        //trigger added article event\n        emit addedArticleEvent(articlesCount, articleTitle, articleContent);\n\n    }\n\n\n\n}",
  "sourcePath": "/home/bobby/vivien/productionapp/contracts/Production.sol",
  "compiler": {
    "name": "solc",
    "version": "0.5.12+commit.7709ece9.Emscripten.clang"
  },
  "schemaVersion": "3.0.20",
  "updatedAt": "2020-02-04T15:22:31.508Z",
  "networkType": "ethereum",
  "devdoc": {
    "methods": {}
  },
  "userdoc": {
    "methods": {}
  }
}