{
  "contractName": "Production",
  "abi": [
    {
      "inputs": [],
      "payable": false,
      "stateMutability": "nonpayable",
      "type": "constructor"
    },
    {
      "anonymous": false,
      "inputs": [
        {
          "indexed": true,
          "internalType": "uint256",
          "name": "mandatsCount",
          "type": "uint256"
        }
      ],
      "name": "addedMandatEvent",
      "type": "event"
    },
    {
      "anonymous": false,
      "inputs": [
        {
          "indexed": false,
          "internalType": "uint256",
          "name": "id",
          "type": "uint256"
        },
        {
          "indexed": false,
          "internalType": "string",
          "name": "name",
          "type": "string"
        },
        {
          "indexed": false,
          "internalType": "uint256",
          "name": "producerShare",
          "type": "uint256"
        },
        {
          "indexed": false,
          "internalType": "address",
          "name": "owner",
          "type": "address"
        }
      ],
      "name": "addedProducerEvent",
      "type": "event"
    },
    {
      "anonymous": false,
      "inputs": [
        {
          "indexed": false,
          "internalType": "uint256",
          "name": "id",
          "type": "uint256"
        },
        {
          "indexed": false,
          "internalType": "uint256",
          "name": "_revenueAmount",
          "type": "uint256"
        },
        {
          "indexed": false,
          "internalType": "uint256",
          "name": "revenuesTotal",
          "type": "uint256"
        },
        {
          "indexed": false,
          "internalType": "address",
          "name": "owner",
          "type": "address"
        },
        {
          "indexed": false,
          "internalType": "uint256",
          "name": "revenueTimestamp",
          "type": "uint256"
        }
      ],
      "name": "addedRevenueEvent",
      "type": "event"
    },
    {
      "constant": true,
      "inputs": [
        {
          "internalType": "address",
          "name": "",
          "type": "address"
        }
      ],
      "name": "listProducers",
      "outputs": [
        {
          "internalType": "bool",
          "name": "",
          "type": "bool"
        }
      ],
      "payable": false,
      "stateMutability": "view",
      "type": "function"
    },
    {
      "constant": true,
      "inputs": [
        {
          "internalType": "uint256",
          "name": "",
          "type": "uint256"
        }
      ],
      "name": "mandats",
      "outputs": [
        {
          "internalType": "uint256",
          "name": "id",
          "type": "uint256"
        },
        {
          "internalType": "string",
          "name": "mandatType",
          "type": "string"
        }
      ],
      "payable": false,
      "stateMutability": "view",
      "type": "function"
    },
    {
      "constant": true,
      "inputs": [],
      "name": "mandatsCount",
      "outputs": [
        {
          "internalType": "uint256",
          "name": "",
          "type": "uint256"
        }
      ],
      "payable": false,
      "stateMutability": "view",
      "type": "function"
    },
    {
      "constant": true,
      "inputs": [],
      "name": "name",
      "outputs": [
        {
          "internalType": "string",
          "name": "",
          "type": "string"
        }
      ],
      "payable": false,
      "stateMutability": "view",
      "type": "function"
    },
    {
      "constant": true,
      "inputs": [],
      "name": "newRevenuesTotal",
      "outputs": [
        {
          "internalType": "uint256",
          "name": "",
          "type": "uint256"
        }
      ],
      "payable": false,
      "stateMutability": "view",
      "type": "function"
    },
    {
      "constant": true,
      "inputs": [
        {
          "internalType": "uint256",
          "name": "",
          "type": "uint256"
        }
      ],
      "name": "producers",
      "outputs": [
        {
          "internalType": "uint256",
          "name": "id",
          "type": "uint256"
        },
        {
          "internalType": "string",
          "name": "name",
          "type": "string"
        },
        {
          "internalType": "uint256",
          "name": "producerShare",
          "type": "uint256"
        }
      ],
      "payable": false,
      "stateMutability": "view",
      "type": "function"
    },
    {
      "constant": true,
      "inputs": [],
      "name": "producersCount",
      "outputs": [
        {
          "internalType": "uint256",
          "name": "",
          "type": "uint256"
        }
      ],
      "payable": false,
      "stateMutability": "view",
      "type": "function"
    },
    {
      "constant": true,
      "inputs": [
        {
          "internalType": "uint256",
          "name": "",
          "type": "uint256"
        }
      ],
      "name": "revenues",
      "outputs": [
        {
          "internalType": "uint256",
          "name": "id",
          "type": "uint256"
        },
        {
          "internalType": "uint256",
          "name": "revenueAmount",
          "type": "uint256"
        },
        {
          "internalType": "uint256",
          "name": "revenueTimestamp",
          "type": "uint256"
        }
      ],
      "payable": false,
      "stateMutability": "view",
      "type": "function"
    },
    {
      "constant": true,
      "inputs": [],
      "name": "revenuesCount",
      "outputs": [
        {
          "internalType": "uint256",
          "name": "",
          "type": "uint256"
        }
      ],
      "payable": false,
      "stateMutability": "view",
      "type": "function"
    },
    {
      "constant": true,
      "inputs": [],
      "name": "revenuesTotal",
      "outputs": [
        {
          "internalType": "uint256",
          "name": "",
          "type": "uint256"
        }
      ],
      "payable": false,
      "stateMutability": "view",
      "type": "function"
    },
    {
      "constant": false,
      "inputs": [
        {
          "internalType": "string",
          "name": "_name",
          "type": "string"
        },
        {
          "internalType": "uint256",
          "name": "_producerShare",
          "type": "uint256"
        }
      ],
      "name": "addProducer",
      "outputs": [],
      "payable": false,
      "stateMutability": "nonpayable",
      "type": "function"
    },
    {
      "constant": true,
      "inputs": [
        {
          "internalType": "uint256",
          "name": "producerID",
          "type": "uint256"
        }
      ],
      "name": "getProducer",
      "outputs": [
        {
          "internalType": "uint256",
          "name": "",
          "type": "uint256"
        },
        {
          "internalType": "string",
          "name": "",
          "type": "string"
        },
        {
          "internalType": "uint256",
          "name": "",
          "type": "uint256"
        }
      ],
      "payable": false,
      "stateMutability": "view",
      "type": "function"
    },
    {
      "constant": false,
      "inputs": [
        {
          "internalType": "string",
          "name": "_mandatType",
          "type": "string"
        }
      ],
      "name": "addMandat",
      "outputs": [],
      "payable": false,
      "stateMutability": "nonpayable",
      "type": "function"
    },
    {
      "constant": false,
      "inputs": [
        {
          "internalType": "uint256",
          "name": "_revenueAmount",
          "type": "uint256"
        }
      ],
      "name": "addRevenue",
      "outputs": [],
      "payable": false,
      "stateMutability": "nonpayable",
      "type": "function"
    }
  ],
  "bytecode": "0x60806040526000600755600060095534801561001a57600080fd5b506040518060400160405280600f81526020017f446170702050726f64756374696f6e00000000000000000000000000000000008152506000908051906020019061006692919061006c565b50610111565b828054600181600116156101000203166002900490600052602060002090601f016020900481019282601f106100ad57805160ff19168380011785556100db565b828001600101855582156100db579182015b828111156100da5782518255916020019190600101906100bf565b5b5090506100e891906100ec565b5090565b61010e91905b8082111561010a5760008160009055506001016100f2565b5090565b90565b610dcf806101206000396000f3fe608060405234801561001057600080fd5b50600436106100ea5760003560e01c806363ec512d1161008c578063d293616d11610066578063d293616d146105d0578063d76fc042146105ee578063d95894d81461060c578063e53142e21461065c576100ea565b806363ec512d146104cf578063922cec19146104fd5780639b68ade71461051b576100ea565b806339b1cc1e116100c857806339b1cc1e1461023e5780633a510500146102f95780633bbd42b6146103ae5780634eb406761461040a576100ea565b806306fdde03146100ef57806314ef8a521461017257806315956fc714610220575b600080fd5b6100f761067a565b6040518080602001828103825283818151815260200191508051906020019080838360005b8381101561013757808201518184015260208101905061011c565b50505050905090810190601f1680156101645780820380516001836020036101000a031916815260200191505b509250505060405180910390f35b61019e6004803603602081101561018857600080fd5b8101908080359060200190929190505050610718565b6040518083815260200180602001828103825283818151815260200191508051906020019080838360005b838110156101e45780820151818401526020810190506101c9565b50505050905090810190601f1680156102115780820380516001836020036101000a031916815260200191505b50935050505060405180910390f35b6102286107d4565b6040518082815260200191505060405180910390f35b6102f76004803603602081101561025457600080fd5b810190808035906020019064010000000081111561027157600080fd5b82018360208201111561028357600080fd5b803590602001918460018302840111640100000000831117156102a557600080fd5b91908080601f016020809104026020016040519081016040528093929190818152602001838380828437600081840152601f19601f8201169050808301925050505050505091929192905050506107da565b005b6103256004803603602081101561030f57600080fd5b8101908080359060200190929190505050610874565b6040518084815260200180602001838152602001828103825284818151815260200191508051906020019080838360005b83811015610371578082015181840152602081019050610356565b50505050905090810190601f16801561039e5780820380516001836020036101000a031916815260200191505b5094505050505060405180910390f35b6103f0600480360360208110156103c457600080fd5b81019080803573ffffffffffffffffffffffffffffffffffffffff169060200190929190505050610948565b604051808215151515815260200191505060405180910390f35b6104cd6004803603604081101561042057600080fd5b810190808035906020019064010000000081111561043d57600080fd5b82018360208201111561044f57600080fd5b8035906020019184600183028401116401000000008311171561047157600080fd5b91908080601f016020809104026020016040519081016040528093929190818152602001838380828437600081840152601f19601f82011690508083019250505050505050919291929080359060200190929190505050610968565b005b6104fb600480360360208110156104e557600080fd5b8101908080359060200190929190505050610ae1565b005b610505610bf1565b6040518082815260200191505060405180910390f35b6105476004803603602081101561053157600080fd5b8101908080359060200190929190505050610bf7565b6040518084815260200180602001838152602001828103825284818151815260200191508051906020019080838360005b83811015610593578082015181840152602081019050610578565b50505050905090810190601f1680156105c05780820380516001836020036101000a031916815260200191505b5094505050505060405180910390f35b6105d8610cb9565b6040518082815260200191505060405180910390f35b6105f6610cbf565b6040518082815260200191505060405180910390f35b6106386004803603602081101561062257600080fd5b8101908080359060200190929190505050610cc5565b60405180848152602001838152602001828152602001935050505060405180910390f35b610664610cef565b6040518082815260200191505060405180910390f35b60008054600181600116156101000203166002900480601f0160208091040260200160405190810160405280929190818152602001828054600181600116156101000203166002900480156107105780601f106106e557610100808354040283529160200191610710565b820191906000526020600020905b8154815290600101906020018083116106f357829003601f168201915b505050505081565b6004602052806000526040600020600091509050806000015490806001018054600181600116156101000203166002900480601f0160208091040260200160405190810160405280929190818152602001828054600181600116156101000203166002900480156107ca5780601f1061079f576101008083540402835291602001916107ca565b820191906000526020600020905b8154815290600101906020018083116107ad57829003601f168201915b5050505050905082565b60085481565b600560008154809291906001019190505550604051806040016040528060055481526020018281525060046000600554815260200190815260200160002060008201518160000155602082015181600101908051906020019061083e929190610cf5565b509050506005547f6ca3a65978dcb1dac807ab70127707e9de68e905f32dce40db01af62a9322f7d60405160405180910390a250565b600060606000806002600086815260200190815260200160002090508060000154816001018260020154818054600181600116156101000203166002900480601f0160208091040260200160405190810160405280929190818152602001828054600181600116156101000203166002900480156109335780601f1061090857610100808354040283529160200191610933565b820191906000526020600020905b81548152906001019060200180831161091657829003601f168201915b50505050509150935093509350509193909250565b60016020528060005260406000206000915054906101000a900460ff1681565b600082511161097657600080fd5b6000811161098357600080fd5b60036000815480929190600101919050555060405180606001604052806003548152602001838152602001828152506002600060035481526020019081526020016000206000820151816000015560208201518160010190805190602001906109ed929190610cf5565b50604082015181600201559050507fb2ad2a557c1e5c409b8f438c834e7d7f05428b45975aab0ee496bf16b390c43c60035483833360405180858152602001806020018481526020018373ffffffffffffffffffffffffffffffffffffffff1673ffffffffffffffffffffffffffffffffffffffff168152602001828103825285818151815260200191508051906020019080838360005b83811015610aa0578082015181840152602081019050610a85565b50505050905090810190601f168015610acd5780820380516001836020036101000a031916815260200191505b509550505050505060405180910390a15050565b60008111610aee57600080fd5b600960008154809291906001019190505550806007540160088190555060085460078190555060405180606001604052806009548152602001828152602001428152506006600060095481526020019081526020016000206000820151816000015560208201518160010155604082015181600201559050507fd1160c528182b73199ffcc5f84ee4a10acbe4009e701a9f63cc550df5bb97a13600954826007543342604051808681526020018581526020018481526020018373ffffffffffffffffffffffffffffffffffffffff1673ffffffffffffffffffffffffffffffffffffffff1681526020018281526020019550505050505060405180910390a150565b60095481565b6002602052806000526040600020600091509050806000015490806001018054600181600116156101000203166002900480601f016020809104026020016040519081016040528092919081815260200182805460018160011615610100020316600290048015610ca95780601f10610c7e57610100808354040283529160200191610ca9565b820191906000526020600020905b815481529060010190602001808311610c8c57829003601f168201915b5050505050908060020154905083565b60055481565b60075481565b60066020528060005260406000206000915090508060000154908060010154908060020154905083565b60035481565b828054600181600116156101000203166002900490600052602060002090601f016020900481019282601f10610d3657805160ff1916838001178555610d64565b82800160010185558215610d64579182015b82811115610d63578251825591602001919060010190610d48565b5b509050610d719190610d75565b5090565b610d9791905b80821115610d93576000816000905550600101610d7b565b5090565b9056fea265627a7a72315820a9890afa334fbb0be37bed9de88e574ddbd47e9e071ab25bd4708c42ee2e333f64736f6c634300050c0032",
  "source": "pragma solidity ^0.5.12;\n\ncontract Production {\n\nstring public name;\n\n\n\n\n    // Model a Producer\n    struct Producer {\n        uint id;\n        string name;\n        uint producerShare;\n    }\n\n    // Model a Mandat\n    struct Mandat {\n        uint id;\n        string mandatType;\n    }\n\n\n    // Model a Revenue\n    struct Revenue {\n        uint id;\n        uint revenueAmount;\n        uint revenueTimestamp;\n    }\n\n\n    // Store accounts that have been added\n    mapping(address => bool) public listProducers;\n    // Store Producers\n    // Fetch Producers\n    mapping(uint => Producer) public producers;\n    // Store Producers Count\n    uint public producersCount;\n    //addedProducer event\n    event addedProducerEvent (\n        uint id,\n        string name,\n        uint producerShare,\n        address owner\n    );\n\n    // Store Mandats\n    // Fetch Mandats\n    mapping(uint => Mandat) public mandats;\n    // Store Mandats Count\n    uint public mandatsCount;\n    //addedMandat event\n    event addedMandatEvent (\n        uint indexed mandatsCount\n    );\n\n    // Store Revenues\n    // Fetch Revenues\n    mapping(uint => Revenue) public revenues;\n    // store Revenues Total\n    uint public revenuesTotal = 0;\n    uint public newRevenuesTotal;\n    // Store Revenues Count\n    uint public revenuesCount = 0;\n    //addedRevenue event\n    event addedRevenueEvent (\n        uint id,\n        uint _revenueAmount,\n        uint revenuesTotal,\n        address owner, \n        uint revenueTimestamp\n    );\n\n\n\n    constructor () public {\n        name = \"Dapp Production\";\n\n        //addProducer(\"Steven Spielberg\", 50);\n        //addProducer(\"Producteur 2\", 50);\n        //addMandat(\"Droits TV\")\n        //addRevenue(\"5000\")\n    }\n\n    function addProducer (string memory _name, uint _producerShare) public {\n          // Require a valid name\n        require(bytes(_name).length > 0);\n        // Require a valid producerShare\n        require(_producerShare > 0);\n        producersCount ++;\n        producers[producersCount] = Producer(producersCount, _name, _producerShare);\n        //trigger added producer event\n        emit addedProducerEvent(producersCount, _name, _producerShare, msg.sender);\n\n\n    }\n\n    function getProducer(uint producerID) public view\n    returns (uint, string memory, uint) {\n\n        Producer storage producer = producers[producerID];\n        return (producer.id, producer.name, producer.producerShare);\n    }\n\n\n    function addMandat (string memory _mandatType) public {\n        mandatsCount ++;\n        mandats[mandatsCount] = Mandat(mandatsCount, _mandatType);\n        //trigger added mandat event\n        emit addedMandatEvent(mandatsCount);\n\n    }\n\n    function addRevenue (uint _revenueAmount) public {\n        // Require a valid _revenueAmount\n        require(_revenueAmount > 0);\n        revenuesCount ++;\n        newRevenuesTotal = revenuesTotal + _revenueAmount;\n        revenuesTotal = newRevenuesTotal;\n        revenues[revenuesCount] = Revenue(revenuesCount, _revenueAmount, block.timestamp);\n        //trigger added revenue event\n        emit addedRevenueEvent(revenuesCount, _revenueAmount, revenuesTotal, msg.sender, block.timestamp);\n\n    }\n\n\n\n}",
  "sourcePath": "/home/bobby/vivien/productionapp/contracts/Production.sol",
  "compiler": {
    "name": "solc",
    "version": "0.5.12+commit.7709ece9.Emscripten.clang"
  },
  "schemaVersion": "3.0.20",
  "updatedAt": "2020-01-28T16:29:44.300Z",
  "networkType": "ethereum",
  "devdoc": {
    "methods": {}
  },
  "userdoc": {
    "methods": {}
  }
}