{
  "contractName": "Production",
  "abi": [
    {
      "inputs": [],
      "payable": false,
      "stateMutability": "nonpayable",
      "type": "constructor"
    },
    {
      "anonymous": false,
      "inputs": [
        {
          "indexed": true,
          "internalType": "uint256",
          "name": "mandatsCount",
          "type": "uint256"
        }
      ],
      "name": "addedMandatEvent",
      "type": "event"
    },
    {
      "anonymous": false,
      "inputs": [
        {
          "indexed": false,
          "internalType": "uint256",
          "name": "id",
          "type": "uint256"
        },
        {
          "indexed": false,
          "internalType": "string",
          "name": "name",
          "type": "string"
        },
        {
          "indexed": false,
          "internalType": "uint256",
          "name": "producerShare",
          "type": "uint256"
        },
        {
          "indexed": false,
          "internalType": "address",
          "name": "owner",
          "type": "address"
        }
      ],
      "name": "addedProducerEvent",
      "type": "event"
    },
    {
      "anonymous": false,
      "inputs": [
        {
          "indexed": false,
          "internalType": "uint256",
          "name": "revenuesCount",
          "type": "uint256"
        },
        {
          "indexed": false,
          "internalType": "uint256",
          "name": "_revenueAmount",
          "type": "uint256"
        },
        {
          "indexed": false,
          "internalType": "uint256",
          "name": "revenuesTotal",
          "type": "uint256"
        },
        {
          "indexed": false,
          "internalType": "address",
          "name": "owner",
          "type": "address"
        }
      ],
      "name": "addedRevenueEvent",
      "type": "event"
    },
    {
      "constant": true,
      "inputs": [
        {
          "internalType": "address",
          "name": "",
          "type": "address"
        }
      ],
      "name": "listProducers",
      "outputs": [
        {
          "internalType": "bool",
          "name": "",
          "type": "bool"
        }
      ],
      "payable": false,
      "stateMutability": "view",
      "type": "function"
    },
    {
      "constant": true,
      "inputs": [
        {
          "internalType": "uint256",
          "name": "",
          "type": "uint256"
        }
      ],
      "name": "mandats",
      "outputs": [
        {
          "internalType": "uint256",
          "name": "id",
          "type": "uint256"
        },
        {
          "internalType": "string",
          "name": "mandatType",
          "type": "string"
        }
      ],
      "payable": false,
      "stateMutability": "view",
      "type": "function"
    },
    {
      "constant": true,
      "inputs": [],
      "name": "mandatsCount",
      "outputs": [
        {
          "internalType": "uint256",
          "name": "",
          "type": "uint256"
        }
      ],
      "payable": false,
      "stateMutability": "view",
      "type": "function"
    },
    {
      "constant": true,
      "inputs": [],
      "name": "name",
      "outputs": [
        {
          "internalType": "string",
          "name": "",
          "type": "string"
        }
      ],
      "payable": false,
      "stateMutability": "view",
      "type": "function"
    },
    {
      "constant": true,
      "inputs": [],
      "name": "newRevenuesTotal",
      "outputs": [
        {
          "internalType": "uint256",
          "name": "",
          "type": "uint256"
        }
      ],
      "payable": false,
      "stateMutability": "view",
      "type": "function"
    },
    {
      "constant": true,
      "inputs": [
        {
          "internalType": "uint256",
          "name": "",
          "type": "uint256"
        }
      ],
      "name": "producers",
      "outputs": [
        {
          "internalType": "uint256",
          "name": "id",
          "type": "uint256"
        },
        {
          "internalType": "string",
          "name": "name",
          "type": "string"
        },
        {
          "internalType": "uint256",
          "name": "producerShare",
          "type": "uint256"
        }
      ],
      "payable": false,
      "stateMutability": "view",
      "type": "function"
    },
    {
      "constant": true,
      "inputs": [],
      "name": "producersCount",
      "outputs": [
        {
          "internalType": "uint256",
          "name": "",
          "type": "uint256"
        }
      ],
      "payable": false,
      "stateMutability": "view",
      "type": "function"
    },
    {
      "constant": true,
      "inputs": [
        {
          "internalType": "uint256",
          "name": "",
          "type": "uint256"
        }
      ],
      "name": "revenues",
      "outputs": [
        {
          "internalType": "uint256",
          "name": "id",
          "type": "uint256"
        },
        {
          "internalType": "uint256",
          "name": "revenueAmount",
          "type": "uint256"
        }
      ],
      "payable": false,
      "stateMutability": "view",
      "type": "function"
    },
    {
      "constant": true,
      "inputs": [],
      "name": "revenuesCount",
      "outputs": [
        {
          "internalType": "uint256",
          "name": "",
          "type": "uint256"
        }
      ],
      "payable": false,
      "stateMutability": "view",
      "type": "function"
    },
    {
      "constant": true,
      "inputs": [],
      "name": "revenuesTotal",
      "outputs": [
        {
          "internalType": "uint256",
          "name": "",
          "type": "uint256"
        }
      ],
      "payable": false,
      "stateMutability": "view",
      "type": "function"
    },
    {
      "constant": false,
      "inputs": [
        {
          "internalType": "string",
          "name": "_name",
          "type": "string"
        },
        {
          "internalType": "uint256",
          "name": "_producerShare",
          "type": "uint256"
        }
      ],
      "name": "addProducer",
      "outputs": [],
      "payable": false,
      "stateMutability": "nonpayable",
      "type": "function"
    },
    {
      "constant": true,
      "inputs": [
        {
          "internalType": "uint256",
          "name": "producerID",
          "type": "uint256"
        }
      ],
      "name": "getProducer",
      "outputs": [
        {
          "internalType": "uint256",
          "name": "",
          "type": "uint256"
        },
        {
          "internalType": "string",
          "name": "",
          "type": "string"
        },
        {
          "internalType": "uint256",
          "name": "",
          "type": "uint256"
        }
      ],
      "payable": false,
      "stateMutability": "view",
      "type": "function"
    },
    {
      "constant": false,
      "inputs": [
        {
          "internalType": "string",
          "name": "_mandatType",
          "type": "string"
        }
      ],
      "name": "addMandat",
      "outputs": [],
      "payable": false,
      "stateMutability": "nonpayable",
      "type": "function"
    },
    {
      "constant": false,
      "inputs": [
        {
          "internalType": "uint256",
          "name": "_revenueAmount",
          "type": "uint256"
        }
      ],
      "name": "addRevenue",
      "outputs": [],
      "payable": false,
      "stateMutability": "nonpayable",
      "type": "function"
    }
  ],
  "bytecode": "0x60806040526000600755600060095534801561001a57600080fd5b506040518060400160405280600f81526020017f446170702050726f64756374696f6e00000000000000000000000000000000008152506000908051906020019061006692919061006c565b50610111565b828054600181600116156101000203166002900490600052602060002090601f016020900481019282601f106100ad57805160ff19168380011785556100db565b828001600101855582156100db579182015b828111156100da5782518255916020019190600101906100bf565b5b5090506100e891906100ec565b5090565b61010e91905b8082111561010a5760008160009055506001016100f2565b5090565b90565b610d9d806101206000396000f3fe608060405234801561001057600080fd5b50600436106100ea5760003560e01c806363ec512d1161008c578063d293616d11610066578063d293616d146105d0578063d76fc042146105ee578063d95894d81461060c578063e53142e214610655576100ea565b806363ec512d146104cf578063922cec19146104fd5780639b68ade71461051b576100ea565b806339b1cc1e116100c857806339b1cc1e1461023e5780633a510500146102f95780633bbd42b6146103ae5780634eb406761461040a576100ea565b806306fdde03146100ef57806314ef8a521461017257806315956fc714610220575b600080fd5b6100f7610673565b6040518080602001828103825283818151815260200191508051906020019080838360005b8381101561013757808201518184015260208101905061011c565b50505050905090810190601f1680156101645780820380516001836020036101000a031916815260200191505b509250505060405180910390f35b61019e6004803603602081101561018857600080fd5b8101908080359060200190929190505050610711565b6040518083815260200180602001828103825283818151815260200191508051906020019080838360005b838110156101e45780820151818401526020810190506101c9565b50505050905090810190601f1680156102115780820380516001836020036101000a031916815260200191505b50935050505060405180910390f35b6102286107cd565b6040518082815260200191505060405180910390f35b6102f76004803603602081101561025457600080fd5b810190808035906020019064010000000081111561027157600080fd5b82018360208201111561028357600080fd5b803590602001918460018302840111640100000000831117156102a557600080fd5b91908080601f016020809104026020016040519081016040528093929190818152602001838380828437600081840152601f19601f8201169050808301925050505050505091929192905050506107d3565b005b6103256004803603602081101561030f57600080fd5b810190808035906020019092919050505061086d565b6040518084815260200180602001838152602001828103825284818151815260200191508051906020019080838360005b83811015610371578082015181840152602081019050610356565b50505050905090810190601f16801561039e5780820380516001836020036101000a031916815260200191505b5094505050505060405180910390f35b6103f0600480360360208110156103c457600080fd5b81019080803573ffffffffffffffffffffffffffffffffffffffff169060200190929190505050610941565b604051808215151515815260200191505060405180910390f35b6104cd6004803603604081101561042057600080fd5b810190808035906020019064010000000081111561043d57600080fd5b82018360208201111561044f57600080fd5b8035906020019184600183028401116401000000008311171561047157600080fd5b91908080601f016020809104026020016040519081016040528093929190818152602001838380828437600081840152601f19601f82011690508083019250505050505050919291929080359060200190929190505050610961565b005b6104fb600480360360208110156104e557600080fd5b8101908080359060200190929190505050610ada565b005b610505610bc5565b6040518082815260200191505060405180910390f35b6105476004803603602081101561053157600080fd5b8101908080359060200190929190505050610bcb565b6040518084815260200180602001838152602001828103825284818151815260200191508051906020019080838360005b83811015610593578082015181840152602081019050610578565b50505050905090810190601f1680156105c05780820380516001836020036101000a031916815260200191505b5094505050505060405180910390f35b6105d8610c8d565b6040518082815260200191505060405180910390f35b6105f6610c93565b6040518082815260200191505060405180910390f35b6106386004803603602081101561062257600080fd5b8101908080359060200190929190505050610c99565b604051808381526020018281526020019250505060405180910390f35b61065d610cbd565b6040518082815260200191505060405180910390f35b60008054600181600116156101000203166002900480601f0160208091040260200160405190810160405280929190818152602001828054600181600116156101000203166002900480156107095780601f106106de57610100808354040283529160200191610709565b820191906000526020600020905b8154815290600101906020018083116106ec57829003601f168201915b505050505081565b6004602052806000526040600020600091509050806000015490806001018054600181600116156101000203166002900480601f0160208091040260200160405190810160405280929190818152602001828054600181600116156101000203166002900480156107c35780601f10610798576101008083540402835291602001916107c3565b820191906000526020600020905b8154815290600101906020018083116107a657829003601f168201915b5050505050905082565b60085481565b6005600081548092919060010191905055506040518060400160405280600554815260200182815250600460006005548152602001908152602001600020600082015181600001556020820151816001019080519060200190610837929190610cc3565b509050506005547f6ca3a65978dcb1dac807ab70127707e9de68e905f32dce40db01af62a9322f7d60405160405180910390a250565b600060606000806002600086815260200190815260200160002090508060000154816001018260020154818054600181600116156101000203166002900480601f01602080910402602001604051908101604052809291908181526020018280546001816001161561010002031660029004801561092c5780601f106109015761010080835404028352916020019161092c565b820191906000526020600020905b81548152906001019060200180831161090f57829003601f168201915b50505050509150935093509350509193909250565b60016020528060005260406000206000915054906101000a900460ff1681565b600082511161096f57600080fd5b6000811161097c57600080fd5b60036000815480929190600101919050555060405180606001604052806003548152602001838152602001828152506002600060035481526020019081526020016000206000820151816000015560208201518160010190805190602001906109e6929190610cc3565b50604082015181600201559050507fb2ad2a557c1e5c409b8f438c834e7d7f05428b45975aab0ee496bf16b390c43c60035483833360405180858152602001806020018481526020018373ffffffffffffffffffffffffffffffffffffffff1673ffffffffffffffffffffffffffffffffffffffff168152602001828103825285818151815260200191508051906020019080838360005b83811015610a99578082015181840152602081019050610a7e565b50505050905090810190601f168015610ac65780820380516001836020036101000a031916815260200191505b509550505050505060405180910390a15050565b6009600081548092919060010191905055508060075401600881905550600854600781905550604051806040016040528060095481526020018281525060066000600954815260200190815260200160002060008201518160000155602082015181600101559050507fe35e86e110baf74113923900f7299f974bb135be85cd21d12a536739070a0f056009548260075433604051808581526020018481526020018381526020018273ffffffffffffffffffffffffffffffffffffffff1673ffffffffffffffffffffffffffffffffffffffff16815260200194505050505060405180910390a150565b60095481565b6002602052806000526040600020600091509050806000015490806001018054600181600116156101000203166002900480601f016020809104026020016040519081016040528092919081815260200182805460018160011615610100020316600290048015610c7d5780601f10610c5257610100808354040283529160200191610c7d565b820191906000526020600020905b815481529060010190602001808311610c6057829003601f168201915b5050505050908060020154905083565b60055481565b60075481565b60066020528060005260406000206000915090508060000154908060010154905082565b60035481565b828054600181600116156101000203166002900490600052602060002090601f016020900481019282601f10610d0457805160ff1916838001178555610d32565b82800160010185558215610d32579182015b82811115610d31578251825591602001919060010190610d16565b5b509050610d3f9190610d43565b5090565b610d6591905b80821115610d61576000816000905550600101610d49565b5090565b9056fea265627a7a723158207cf58ecaca1de7ffc40a529a5b06c69064018aa66029f9565661358ed7fb83fd64736f6c634300050c0032",
  "source": "pragma solidity ^0.5.12;\n\ncontract Production {\n\nstring public name;\n\n\n\n\n    // Model a Producer\n    struct Producer {\n        uint id;\n        string name;\n        uint producerShare;\n    }\n\n    // Model a Mandat\n    struct Mandat {\n        uint id;\n        string mandatType;\n    }\n\n\n    // Model a Revenue\n    struct Revenue {\n        uint id;\n        uint revenueAmount;\n    }\n\n\n    // Store accounts that have been added\n    mapping(address => bool) public listProducers;\n    // Store Producers\n    // Fetch Producers\n    mapping(uint => Producer) public producers;\n    // Store Producers Count\n    uint public producersCount;\n    //addedProducer event\n    event addedProducerEvent (\n        uint id,\n        string name,\n        uint producerShare,\n        address owner\n    );\n\n    // Store Mandats\n    // Fetch Mandats\n    mapping(uint => Mandat) public mandats;\n    // Store Mandats Count\n    uint public mandatsCount;\n    //addedMandat event\n    event addedMandatEvent (\n        uint indexed mandatsCount\n    );\n\n    // Store Revenues\n    // Fetch Revenues\n    mapping(uint => Revenue) public revenues;\n    // store Revenues Total\n    uint public revenuesTotal = 0;\n    uint public newRevenuesTotal;\n    // Store Revenues Count\n    uint public revenuesCount = 0;\n    //addedRevenue event\n    event addedRevenueEvent (\n        uint revenuesCount,\n        uint _revenueAmount,\n        uint revenuesTotal,\n        address owner\n    );\n\n\n\n    constructor () public {\n        name = \"Dapp Production\";\n\n        //addProducer(\"Steven Spielberg\", 50);\n        //addProducer(\"Producteur 2\", 50);\n        //addMandat(\"Droits TV\")\n        //addRevenue(\"5000\")\n    }\n\n    function addProducer (string memory _name, uint _producerShare) public {\n          // Require a valid name\n        require(bytes(_name).length > 0);\n        // Require a valid producerShare\n        require(_producerShare > 0);\n        producersCount ++;\n        producers[producersCount] = Producer(producersCount, _name, _producerShare);\n        //trigger added producer event\n        emit addedProducerEvent(producersCount, _name, _producerShare, msg.sender);\n\n\n    }\n\n    function getProducer(uint producerID) public view\n    returns (uint, string memory, uint) {\n\n        Producer storage producer = producers[producerID];\n        return (producer.id, producer.name, producer.producerShare);\n    }\n\n\n    function addMandat (string memory _mandatType) public {\n        mandatsCount ++;\n        mandats[mandatsCount] = Mandat(mandatsCount, _mandatType);\n        //trigger added mandat event\n        emit addedMandatEvent(mandatsCount);\n\n    }\n\n    function addRevenue (uint _revenueAmount) public {\n        revenuesCount ++;\n        newRevenuesTotal = revenuesTotal + _revenueAmount;\n        revenuesTotal = newRevenuesTotal;\n        revenues[revenuesCount] = Revenue(revenuesCount, _revenueAmount);\n        //trigger added revenue event\n        emit addedRevenueEvent(revenuesCount, _revenueAmount, revenuesTotal, msg.sender);\n\n    }\n\n\n\n}",
  "sourcePath": "/home/bobby/vivien/productionapp/contracts/Production.sol",
  "compiler": {
    "name": "solc",
    "version": "0.5.12+commit.7709ece9.Emscripten.clang"
  },
  "schemaVersion": "3.0.20",
  "updatedAt": "2020-01-23T16:35:55.283Z",
  "devdoc": {
    "methods": {}
  },
  "userdoc": {
    "methods": {}
  }
}