{
  "contractName": "Production",
  "abi": [
    {
      "inputs": [],
      "payable": false,
      "stateMutability": "nonpayable",
      "type": "constructor"
    },
    {
      "anonymous": false,
      "inputs": [
        {
          "indexed": true,
          "internalType": "uint256",
          "name": "mandatsCount",
          "type": "uint256"
        }
      ],
      "name": "addedMandatEvent",
      "type": "event"
    },
    {
      "anonymous": false,
      "inputs": [
        {
          "indexed": true,
          "internalType": "uint256",
          "name": "producersCount",
          "type": "uint256"
        }
      ],
      "name": "addedProducerEvent",
      "type": "event"
    },
    {
      "anonymous": false,
      "inputs": [
        {
          "indexed": true,
          "internalType": "uint256",
          "name": "revenuesCount",
          "type": "uint256"
        }
      ],
      "name": "addedRevenueEvent",
      "type": "event"
    },
    {
      "constant": true,
      "inputs": [
        {
          "internalType": "address",
          "name": "",
          "type": "address"
        }
      ],
      "name": "listProducers",
      "outputs": [
        {
          "internalType": "bool",
          "name": "",
          "type": "bool"
        }
      ],
      "payable": false,
      "stateMutability": "view",
      "type": "function"
    },
    {
      "constant": true,
      "inputs": [
        {
          "internalType": "uint256",
          "name": "",
          "type": "uint256"
        }
      ],
      "name": "mandats",
      "outputs": [
        {
          "internalType": "uint256",
          "name": "id",
          "type": "uint256"
        },
        {
          "internalType": "string",
          "name": "mandatType",
          "type": "string"
        }
      ],
      "payable": false,
      "stateMutability": "view",
      "type": "function"
    },
    {
      "constant": true,
      "inputs": [],
      "name": "mandatsCount",
      "outputs": [
        {
          "internalType": "uint256",
          "name": "",
          "type": "uint256"
        }
      ],
      "payable": false,
      "stateMutability": "view",
      "type": "function"
    },
    {
      "constant": true,
      "inputs": [
        {
          "internalType": "uint256",
          "name": "",
          "type": "uint256"
        }
      ],
      "name": "producers",
      "outputs": [
        {
          "internalType": "uint256",
          "name": "id",
          "type": "uint256"
        },
        {
          "internalType": "string",
          "name": "name",
          "type": "string"
        },
        {
          "internalType": "uint256",
          "name": "producerShare",
          "type": "uint256"
        }
      ],
      "payable": false,
      "stateMutability": "view",
      "type": "function"
    },
    {
      "constant": true,
      "inputs": [],
      "name": "producersCount",
      "outputs": [
        {
          "internalType": "uint256",
          "name": "",
          "type": "uint256"
        }
      ],
      "payable": false,
      "stateMutability": "view",
      "type": "function"
    },
    {
      "constant": true,
      "inputs": [
        {
          "internalType": "uint256",
          "name": "",
          "type": "uint256"
        }
      ],
      "name": "revenues",
      "outputs": [
        {
          "internalType": "uint256",
          "name": "id",
          "type": "uint256"
        },
        {
          "internalType": "string",
          "name": "revenueAmount",
          "type": "string"
        }
      ],
      "payable": false,
      "stateMutability": "view",
      "type": "function"
    },
    {
      "constant": true,
      "inputs": [],
      "name": "revenuesCount",
      "outputs": [
        {
          "internalType": "uint256",
          "name": "",
          "type": "uint256"
        }
      ],
      "payable": false,
      "stateMutability": "view",
      "type": "function"
    },
    {
      "constant": false,
      "inputs": [
        {
          "internalType": "string",
          "name": "_name",
          "type": "string"
        },
        {
          "internalType": "uint256",
          "name": "_producerShare",
          "type": "uint256"
        }
      ],
      "name": "addProducer",
      "outputs": [],
      "payable": false,
      "stateMutability": "nonpayable",
      "type": "function"
    },
    {
      "constant": false,
      "inputs": [
        {
          "internalType": "string",
          "name": "_mandatType",
          "type": "string"
        }
      ],
      "name": "addMandat",
      "outputs": [],
      "payable": false,
      "stateMutability": "nonpayable",
      "type": "function"
    },
    {
      "constant": false,
      "inputs": [
        {
          "internalType": "string",
          "name": "_revenueAmount",
          "type": "string"
        }
      ],
      "name": "addRevenue",
      "outputs": [],
      "payable": false,
      "stateMutability": "nonpayable",
      "type": "function"
    }
  ],
  "bytecode": "0x608060405234801561001057600080fd5b50610aca806100206000396000f3fe608060405234801561001057600080fd5b506004361061009e5760003560e01c80639b68ade7116100665780639b68ade71461034b578063d293616d14610400578063d3ddfcc91461041e578063d95894d8146104d9578063e53142e2146105875761009e565b806314ef8a52146100a357806339b1cc1e146101515780633bbd42b61461020c5780634eb4067614610268578063922cec191461032d575b600080fd5b6100cf600480360360208110156100b957600080fd5b81019080803590602001909291905050506105a5565b6040518083815260200180602001828103825283818151815260200191508051906020019080838360005b838110156101155780820151818401526020810190506100fa565b50505050905090810190601f1680156101425780820380516001836020036101000a031916815260200191505b50935050505060405180910390f35b61020a6004803603602081101561016757600080fd5b810190808035906020019064010000000081111561018457600080fd5b82018360208201111561019657600080fd5b803590602001918460018302840111640100000000831117156101b857600080fd5b91908080601f016020809104026020016040519081016040528093929190818152602001838380828437600081840152601f19601f820116905080830192505050505050509192919290505050610661565b005b61024e6004803603602081101561022257600080fd5b81019080803573ffffffffffffffffffffffffffffffffffffffff1690602001909291905050506106fb565b604051808215151515815260200191505060405180910390f35b61032b6004803603604081101561027e57600080fd5b810190808035906020019064010000000081111561029b57600080fd5b8201836020820111156102ad57600080fd5b803590602001918460018302840111640100000000831117156102cf57600080fd5b91908080601f016020809104026020016040519081016040528093929190818152602001838380828437600081840152601f19601f8201169050808301925050505050505091929192908035906020019092919050505061071b565b005b6103356107c6565b6040518082815260200191505060405180910390f35b6103776004803603602081101561036157600080fd5b81019080803590602001909291905050506107cc565b6040518084815260200180602001838152602001828103825284818151815260200191508051906020019080838360005b838110156103c35780820151818401526020810190506103a8565b50505050905090810190601f1680156103f05780820380516001836020036101000a031916815260200191505b5094505050505060405180910390f35b61040861088e565b6040518082815260200191505060405180910390f35b6104d76004803603602081101561043457600080fd5b810190808035906020019064010000000081111561045157600080fd5b82018360208201111561046357600080fd5b8035906020019184600183028401116401000000008311171561048557600080fd5b91908080601f016020809104026020016040519081016040528093929190818152602001838380828437600081840152601f19601f820116905080830192505050505050509192919290505050610894565b005b610505600480360360208110156104ef57600080fd5b810190808035906020019092919050505061092e565b6040518083815260200180602001828103825283818151815260200191508051906020019080838360005b8381101561054b578082015181840152602081019050610530565b50505050905090810190601f1680156105785780820380516001836020036101000a031916815260200191505b50935050505060405180910390f35b61058f6109ea565b6040518082815260200191505060405180910390f35b6003602052806000526040600020600091509050806000015490806001018054600181600116156101000203166002900480601f0160208091040260200160405190810160405280929190818152602001828054600181600116156101000203166002900480156106575780601f1061062c57610100808354040283529160200191610657565b820191906000526020600020905b81548152906001019060200180831161063a57829003601f168201915b5050505050905082565b60046000815480929190600101919050555060405180604001604052806004548152602001828152506003600060045481526020019081526020016000206000820151816000015560208201518160010190805190602001906106c59291906109f0565b509050506004547f6ca3a65978dcb1dac807ab70127707e9de68e905f32dce40db01af62a9322f7d60405160405180910390a250565b60006020528060005260406000206000915054906101000a900460ff1681565b60026000815480929190600101919050555060405180606001604052806002548152602001838152602001828152506001600060025481526020019081526020016000206000820151816000015560208201518160010190805190602001906107859291906109f0565b50604082015181600201559050506002547fa730b3b39127ae8377d7fdb0f843bc60709d11229bb246d821dc968ad91840f960405160405180910390a25050565b60065481565b6001602052806000526040600020600091509050806000015490806001018054600181600116156101000203166002900480601f01602080910402602001604051908101604052809291908181526020018280546001816001161561010002031660029004801561087e5780601f106108535761010080835404028352916020019161087e565b820191906000526020600020905b81548152906001019060200180831161086157829003601f168201915b5050505050908060020154905083565b60045481565b60066000815480929190600101919050555060405180604001604052806006548152602001828152506005600060065481526020019081526020016000206000820151816000015560208201518160010190805190602001906108f89291906109f0565b509050506006547fd7c52d2c4365b693ac7f5da3689862141e5df4839fdc42ddb11d5a787192c87460405160405180910390a250565b6005602052806000526040600020600091509050806000015490806001018054600181600116156101000203166002900480601f0160208091040260200160405190810160405280929190818152602001828054600181600116156101000203166002900480156109e05780601f106109b5576101008083540402835291602001916109e0565b820191906000526020600020905b8154815290600101906020018083116109c357829003601f168201915b5050505050905082565b60025481565b828054600181600116156101000203166002900490600052602060002090601f016020900481019282601f10610a3157805160ff1916838001178555610a5f565b82800160010185558215610a5f579182015b82811115610a5e578251825591602001919060010190610a43565b5b509050610a6c9190610a70565b5090565b610a9291905b80821115610a8e576000816000905550600101610a76565b5090565b9056fea265627a7a72315820479951f30aa4f21bd118d4011c0bffff41c2287c81ab6021cd94e69e86fc930764736f6c634300050c0032",
  "source": "pragma solidity ^0.5.12;\n\ncontract Production {\n\n    // Model a Producer\n    struct Producer {\n        uint id;\n        string name;\n        uint producerShare;\n    }\n\n    // Model a Mandat\n    struct Mandat {\n        uint id;\n        string mandatType;\n    }\n\n\n    // Model a Revenue\n    struct Revenue {\n        uint id;\n        string revenueAmount;\n    }\n\n\n    // Store accounts that have been added\n    mapping(address => bool) public listProducers;\n    // Store Producers\n    // Fetch Producers\n    mapping(uint => Producer) public producers;\n    // Store Producers Count\n    uint public producersCount;\n    //addedProducer event\n    event addedProducerEvent (\n        uint indexed producersCount\n    );\n\n    // Store Mandats\n    // Fetch Mandats\n    mapping(uint => Mandat) public mandats;\n    // Store Mandats Count\n    uint public mandatsCount;\n    //addedMandat event\n    event addedMandatEvent (\n        uint indexed mandatsCount\n    );\n\n    // Store Revenues\n    // Fetch Revenues\n    mapping(uint => Revenue) public revenues;\n    // Store Revenues Count\n    uint public revenuesCount;\n    //addedRevenue event\n    event addedRevenueEvent (\n        uint indexed revenuesCount\n    );\n\n\n\n    constructor () public {\n        //addProducer(\"Steven Spielberg\", 50);\n        //addProducer(\"Producteur 2\", 50);\n        //addMandat(\"Droits TV\")\n        //addRevenue(\"5000\")\n    }\n\n    function addProducer (string memory _name, uint _producerShare) public {\n        producersCount ++;\n        producers[producersCount] = Producer(producersCount, _name, _producerShare);\n        //trigger voted event\n        emit addedProducerEvent(producersCount);\n\n    }\n\n    function addMandat (string memory _mandatType) public {\n        mandatsCount ++;\n        mandats[mandatsCount] = Mandat(mandatsCount, _mandatType);\n        //trigger voted event\n        emit addedMandatEvent(mandatsCount);\n\n    }\n\n    function addRevenue (string memory _revenueAmount) public {\n        revenuesCount ++;\n        revenues[revenuesCount] = Revenue(revenuesCount, _revenueAmount);\n        //trigger voted event\n        emit addedRevenueEvent(revenuesCount);\n\n    }\n\n\n\n}",
  "sourcePath": "/home/bobby/vivien/productionapp/contracts/Production.sol",
  "compiler": {
    "name": "solc",
    "version": "0.5.12+commit.7709ece9.Emscripten.clang"
  },
  "schemaVersion": "3.0.20",
  "updatedAt": "2020-01-04T20:04:21.091Z",
  "networkType": "ethereum",
  "devdoc": {
    "methods": {}
  },
  "userdoc": {
    "methods": {}
  }
}