{
  "contractName": "Production",
  "abi": [
    {
      "inputs": [],
      "payable": false,
      "stateMutability": "nonpayable",
      "type": "constructor"
    },
    {
      "anonymous": false,
      "inputs": [
        {
          "indexed": true,
          "internalType": "uint256",
          "name": "mandatsCount",
          "type": "uint256"
        }
      ],
      "name": "addedMandatEvent",
      "type": "event"
    },
    {
      "anonymous": false,
      "inputs": [
        {
          "indexed": true,
          "internalType": "uint256",
          "name": "producersCount",
          "type": "uint256"
        }
      ],
      "name": "addedProducerEvent",
      "type": "event"
    },
    {
      "anonymous": false,
      "inputs": [
        {
          "indexed": true,
          "internalType": "uint256",
          "name": "revenuesCount",
          "type": "uint256"
        }
      ],
      "name": "addedRevenueEvent",
      "type": "event"
    },
    {
      "constant": true,
      "inputs": [
        {
          "internalType": "address",
          "name": "",
          "type": "address"
        }
      ],
      "name": "listProducers",
      "outputs": [
        {
          "internalType": "bool",
          "name": "",
          "type": "bool"
        }
      ],
      "payable": false,
      "stateMutability": "view",
      "type": "function"
    },
    {
      "constant": true,
      "inputs": [
        {
          "internalType": "uint256",
          "name": "",
          "type": "uint256"
        }
      ],
      "name": "mandats",
      "outputs": [
        {
          "internalType": "uint256",
          "name": "id",
          "type": "uint256"
        },
        {
          "internalType": "string",
          "name": "mandatType",
          "type": "string"
        }
      ],
      "payable": false,
      "stateMutability": "view",
      "type": "function"
    },
    {
      "constant": true,
      "inputs": [],
      "name": "mandatsCount",
      "outputs": [
        {
          "internalType": "uint256",
          "name": "",
          "type": "uint256"
        }
      ],
      "payable": false,
      "stateMutability": "view",
      "type": "function"
    },
    {
      "constant": true,
      "inputs": [],
      "name": "name",
      "outputs": [
        {
          "internalType": "string",
          "name": "",
          "type": "string"
        }
      ],
      "payable": false,
      "stateMutability": "view",
      "type": "function"
    },
    {
      "constant": true,
      "inputs": [
        {
          "internalType": "uint256",
          "name": "",
          "type": "uint256"
        }
      ],
      "name": "producers",
      "outputs": [
        {
          "internalType": "uint256",
          "name": "id",
          "type": "uint256"
        },
        {
          "internalType": "string",
          "name": "name",
          "type": "string"
        },
        {
          "internalType": "uint256",
          "name": "producerShare",
          "type": "uint256"
        }
      ],
      "payable": false,
      "stateMutability": "view",
      "type": "function"
    },
    {
      "constant": true,
      "inputs": [],
      "name": "producersCount",
      "outputs": [
        {
          "internalType": "uint256",
          "name": "",
          "type": "uint256"
        }
      ],
      "payable": false,
      "stateMutability": "view",
      "type": "function"
    },
    {
      "constant": true,
      "inputs": [
        {
          "internalType": "uint256",
          "name": "",
          "type": "uint256"
        }
      ],
      "name": "revenues",
      "outputs": [
        {
          "internalType": "uint256",
          "name": "id",
          "type": "uint256"
        },
        {
          "internalType": "string",
          "name": "revenueAmount",
          "type": "string"
        }
      ],
      "payable": false,
      "stateMutability": "view",
      "type": "function"
    },
    {
      "constant": true,
      "inputs": [],
      "name": "revenuesCount",
      "outputs": [
        {
          "internalType": "uint256",
          "name": "",
          "type": "uint256"
        }
      ],
      "payable": false,
      "stateMutability": "view",
      "type": "function"
    },
    {
      "constant": false,
      "inputs": [
        {
          "internalType": "string",
          "name": "_name",
          "type": "string"
        },
        {
          "internalType": "uint256",
          "name": "_producerShare",
          "type": "uint256"
        }
      ],
      "name": "addProducer",
      "outputs": [],
      "payable": false,
      "stateMutability": "nonpayable",
      "type": "function"
    },
    {
      "constant": true,
      "inputs": [
        {
          "internalType": "uint256",
          "name": "producerID",
          "type": "uint256"
        }
      ],
      "name": "getProducer",
      "outputs": [
        {
          "internalType": "uint256",
          "name": "",
          "type": "uint256"
        },
        {
          "internalType": "string",
          "name": "",
          "type": "string"
        },
        {
          "internalType": "uint256",
          "name": "",
          "type": "uint256"
        }
      ],
      "payable": false,
      "stateMutability": "view",
      "type": "function"
    },
    {
      "constant": false,
      "inputs": [
        {
          "internalType": "string",
          "name": "_mandatType",
          "type": "string"
        }
      ],
      "name": "addMandat",
      "outputs": [],
      "payable": false,
      "stateMutability": "nonpayable",
      "type": "function"
    },
    {
      "constant": false,
      "inputs": [
        {
          "internalType": "string",
          "name": "_revenueAmount",
          "type": "string"
        }
      ],
      "name": "addRevenue",
      "outputs": [],
      "payable": false,
      "stateMutability": "nonpayable",
      "type": "function"
    }
  ],
  "bytecode": "0x608060405234801561001057600080fd5b506040518060400160405280600f81526020017f446170702050726f64756374696f6e00000000000000000000000000000000008152506000908051906020019061005c929190610062565b50610107565b828054600181600116156101000203166002900490600052602060002090601f016020900481019282601f106100a357805160ff19168380011785556100d1565b828001600101855582156100d1579182015b828111156100d05782518255916020019190600101906100b5565b5b5090506100de91906100e2565b5090565b61010491905b808211156101005760008160009055506001016100e8565b5090565b90565b610d8a806101166000396000f3fe608060405234801561001057600080fd5b50600436106100b45760003560e01c8063922cec1911610071578063922cec191461047b5780639b68ade714610499578063d293616d1461054e578063d3ddfcc91461056c578063d95894d814610627578063e53142e2146106d5576100b4565b806306fdde03146100b957806314ef8a521461013c57806339b1cc1e146101ea5780633a510500146102a55780633bbd42b61461035a5780634eb40676146103b6575b600080fd5b6100c16106f3565b6040518080602001828103825283818151815260200191508051906020019080838360005b838110156101015780820151818401526020810190506100e6565b50505050905090810190601f16801561012e5780820380516001836020036101000a031916815260200191505b509250505060405180910390f35b6101686004803603602081101561015257600080fd5b8101908080359060200190929190505050610791565b6040518083815260200180602001828103825283818151815260200191508051906020019080838360005b838110156101ae578082015181840152602081019050610193565b50505050905090810190601f1680156101db5780820380516001836020036101000a031916815260200191505b50935050505060405180910390f35b6102a36004803603602081101561020057600080fd5b810190808035906020019064010000000081111561021d57600080fd5b82018360208201111561022f57600080fd5b8035906020019184600183028401116401000000008311171561025157600080fd5b91908080601f016020809104026020016040519081016040528093929190818152602001838380828437600081840152601f19601f82011690508083019250505050505050919291929050505061084d565b005b6102d1600480360360208110156102bb57600080fd5b81019080803590602001909291905050506108e7565b6040518084815260200180602001838152602001828103825284818151815260200191508051906020019080838360005b8381101561031d578082015181840152602081019050610302565b50505050905090810190601f16801561034a5780820380516001836020036101000a031916815260200191505b5094505050505060405180910390f35b61039c6004803603602081101561037057600080fd5b81019080803573ffffffffffffffffffffffffffffffffffffffff1690602001909291905050506109bb565b604051808215151515815260200191505060405180910390f35b610479600480360360408110156103cc57600080fd5b81019080803590602001906401000000008111156103e957600080fd5b8201836020820111156103fb57600080fd5b8035906020019184600183028401116401000000008311171561041d57600080fd5b91908080601f016020809104026020016040519081016040528093929190818152602001838380828437600081840152601f19601f820116905080830192505050505050509192919290803590602001909291905050506109db565b005b610483610a86565b6040518082815260200191505060405180910390f35b6104c5600480360360208110156104af57600080fd5b8101908080359060200190929190505050610a8c565b6040518084815260200180602001838152602001828103825284818151815260200191508051906020019080838360005b838110156105115780820151818401526020810190506104f6565b50505050905090810190601f16801561053e5780820380516001836020036101000a031916815260200191505b5094505050505060405180910390f35b610556610b4e565b6040518082815260200191505060405180910390f35b6106256004803603602081101561058257600080fd5b810190808035906020019064010000000081111561059f57600080fd5b8201836020820111156105b157600080fd5b803590602001918460018302840111640100000000831117156105d357600080fd5b91908080601f016020809104026020016040519081016040528093929190818152602001838380828437600081840152601f19601f820116905080830192505050505050509192919290505050610b54565b005b6106536004803603602081101561063d57600080fd5b8101908080359060200190929190505050610bee565b6040518083815260200180602001828103825283818151815260200191508051906020019080838360005b8381101561069957808201518184015260208101905061067e565b50505050905090810190601f1680156106c65780820380516001836020036101000a031916815260200191505b50935050505060405180910390f35b6106dd610caa565b6040518082815260200191505060405180910390f35b60008054600181600116156101000203166002900480601f0160208091040260200160405190810160405280929190818152602001828054600181600116156101000203166002900480156107895780601f1061075e57610100808354040283529160200191610789565b820191906000526020600020905b81548152906001019060200180831161076c57829003601f168201915b505050505081565b6004602052806000526040600020600091509050806000015490806001018054600181600116156101000203166002900480601f0160208091040260200160405190810160405280929190818152602001828054600181600116156101000203166002900480156108435780601f1061081857610100808354040283529160200191610843565b820191906000526020600020905b81548152906001019060200180831161082657829003601f168201915b5050505050905082565b60056000815480929190600101919050555060405180604001604052806005548152602001828152506004600060055481526020019081526020016000206000820151816000015560208201518160010190805190602001906108b1929190610cb0565b509050506005547f6ca3a65978dcb1dac807ab70127707e9de68e905f32dce40db01af62a9322f7d60405160405180910390a250565b600060606000806002600086815260200190815260200160002090508060000154816001018260020154818054600181600116156101000203166002900480601f0160208091040260200160405190810160405280929190818152602001828054600181600116156101000203166002900480156109a65780601f1061097b576101008083540402835291602001916109a6565b820191906000526020600020905b81548152906001019060200180831161098957829003601f168201915b50505050509150935093509350509193909250565b60016020528060005260406000206000915054906101000a900460ff1681565b6003600081548092919060010191905055506040518060600160405280600354815260200183815260200182815250600260006003548152602001908152602001600020600082015181600001556020820151816001019080519060200190610a45929190610cb0565b50604082015181600201559050506003547fa730b3b39127ae8377d7fdb0f843bc60709d11229bb246d821dc968ad91840f960405160405180910390a25050565b60075481565b6002602052806000526040600020600091509050806000015490806001018054600181600116156101000203166002900480601f016020809104026020016040519081016040528092919081815260200182805460018160011615610100020316600290048015610b3e5780601f10610b1357610100808354040283529160200191610b3e565b820191906000526020600020905b815481529060010190602001808311610b2157829003601f168201915b5050505050908060020154905083565b60055481565b6007600081548092919060010191905055506040518060400160405280600754815260200182815250600660006007548152602001908152602001600020600082015181600001556020820151816001019080519060200190610bb8929190610cb0565b509050506007547fd7c52d2c4365b693ac7f5da3689862141e5df4839fdc42ddb11d5a787192c87460405160405180910390a250565b6006602052806000526040600020600091509050806000015490806001018054600181600116156101000203166002900480601f016020809104026020016040519081016040528092919081815260200182805460018160011615610100020316600290048015610ca05780601f10610c7557610100808354040283529160200191610ca0565b820191906000526020600020905b815481529060010190602001808311610c8357829003601f168201915b5050505050905082565b60035481565b828054600181600116156101000203166002900490600052602060002090601f016020900481019282601f10610cf157805160ff1916838001178555610d1f565b82800160010185558215610d1f579182015b82811115610d1e578251825591602001919060010190610d03565b5b509050610d2c9190610d30565b5090565b610d5291905b80821115610d4e576000816000905550600101610d36565b5090565b9056fea265627a7a72315820c41ab7c9c99b59b6cb806281e63916b3c2a92e692484ef1b7abed5106ec333ce64736f6c634300050c0032",
  "source": "pragma solidity ^0.5.12;\n\ncontract Production {\n\nstring public name;\n\n\n\n\n    // Model a Producer\n    struct Producer {\n        uint id;\n        string name;\n        uint producerShare;\n    }\n\n    // Model a Mandat\n    struct Mandat {\n        uint id;\n        string mandatType;\n    }\n\n\n    // Model a Revenue\n    struct Revenue {\n        uint id;\n        string revenueAmount;\n    }\n\n\n    // Store accounts that have been added\n    mapping(address => bool) public listProducers;\n    // Store Producers\n    // Fetch Producers\n    mapping(uint => Producer) public producers;\n    // Store Producers Count\n    uint public producersCount;\n    //addedProducer event\n    event addedProducerEvent (\n        uint indexed producersCount\n    );\n\n    // Store Mandats\n    // Fetch Mandats\n    mapping(uint => Mandat) public mandats;\n    // Store Mandats Count\n    uint public mandatsCount;\n    //addedMandat event\n    event addedMandatEvent (\n        uint indexed mandatsCount\n    );\n\n    // Store Revenues\n    // Fetch Revenues\n    mapping(uint => Revenue) public revenues;\n    // Store Revenues Count\n    uint public revenuesCount;\n    //addedRevenue event\n    event addedRevenueEvent (\n        uint indexed revenuesCount\n    );\n\n\n\n    constructor () public {\n        name = \"Dapp Production\";\n\n        //addProducer(\"Steven Spielberg\", 50);\n        //addProducer(\"Producteur 2\", 50);\n        //addMandat(\"Droits TV\")\n        //addRevenue(\"5000\")\n    }\n\n    function addProducer (string memory _name, uint _producerShare) public {\n        producersCount ++;\n        producers[producersCount] = Producer(producersCount, _name, _producerShare);\n        //trigger voted event\n        emit addedProducerEvent(producersCount);\n\n    }\n\n    function getProducer(uint producerID) public view\n    returns (uint, string memory, uint) {\n\n        Producer storage producer = producers[producerID];\n        return (producer.id, producer.name, producer.producerShare);\n    }\n\n\n    function addMandat (string memory _mandatType) public {\n        mandatsCount ++;\n        mandats[mandatsCount] = Mandat(mandatsCount, _mandatType);\n        //trigger voted event\n        emit addedMandatEvent(mandatsCount);\n\n    }\n\n    function addRevenue (string memory _revenueAmount) public {\n        revenuesCount ++;\n        revenues[revenuesCount] = Revenue(revenuesCount, _revenueAmount);\n        //trigger voted event\n        emit addedRevenueEvent(revenuesCount);\n\n    }\n\n\n\n}",
  "sourcePath": "/home/bobby/vivien/productionapp/contracts/Production.sol",
  "compiler": {
    "name": "solc",
    "version": "0.5.12+commit.7709ece9.Emscripten.clang"
  },
  "schemaVersion": "3.0.20",
  "updatedAt": "2020-01-10T11:56:50.465Z",
  "devdoc": {
    "methods": {}
  },
  "userdoc": {
    "methods": {}
  }
}