{
  "contractName": "Production",
  "abi": [
    {
      "inputs": [],
      "payable": false,
      "stateMutability": "nonpayable",
      "type": "constructor"
    },
    {
      "anonymous": false,
      "inputs": [
        {
          "indexed": false,
          "internalType": "uint256",
          "name": "id",
          "type": "uint256"
        },
        {
          "indexed": false,
          "internalType": "string",
          "name": "articleName",
          "type": "string"
        },
        {
          "indexed": false,
          "internalType": "string",
          "name": "articleContent",
          "type": "string"
        }
      ],
      "name": "addedArticleEvent",
      "type": "event"
    },
    {
      "anonymous": false,
      "inputs": [
        {
          "indexed": true,
          "internalType": "uint256",
          "name": "mandatsCount",
          "type": "uint256"
        }
      ],
      "name": "addedMandatEvent",
      "type": "event"
    },
    {
      "anonymous": false,
      "inputs": [
        {
          "indexed": false,
          "internalType": "uint256",
          "name": "id",
          "type": "uint256"
        },
        {
          "indexed": false,
          "internalType": "string",
          "name": "name",
          "type": "string"
        },
        {
          "indexed": false,
          "internalType": "uint256",
          "name": "producerShare",
          "type": "uint256"
        },
        {
          "indexed": false,
          "internalType": "address",
          "name": "owner",
          "type": "address"
        }
      ],
      "name": "addedProducerEvent",
      "type": "event"
    },
    {
      "anonymous": false,
      "inputs": [
        {
          "indexed": false,
          "internalType": "uint256",
          "name": "id",
          "type": "uint256"
        },
        {
          "indexed": false,
          "internalType": "uint256",
          "name": "_revenueAmount",
          "type": "uint256"
        },
        {
          "indexed": false,
          "internalType": "uint256",
          "name": "revenuesTotal",
          "type": "uint256"
        },
        {
          "indexed": false,
          "internalType": "address",
          "name": "owner",
          "type": "address"
        },
        {
          "indexed": false,
          "internalType": "uint256",
          "name": "revenueTimestamp",
          "type": "uint256"
        }
      ],
      "name": "addedRevenueEvent",
      "type": "event"
    },
    {
      "anonymous": false,
      "inputs": [
        {
          "indexed": false,
          "internalType": "uint256",
          "name": "id",
          "type": "uint256"
        },
        {
          "indexed": false,
          "internalType": "address",
          "name": "owner",
          "type": "address"
        }
      ],
      "name": "addedSignatureEvent",
      "type": "event"
    },
    {
      "constant": true,
      "inputs": [
        {
          "internalType": "uint256",
          "name": "",
          "type": "uint256"
        }
      ],
      "name": "articles",
      "outputs": [
        {
          "internalType": "uint256",
          "name": "id",
          "type": "uint256"
        },
        {
          "internalType": "string",
          "name": "articleTitle",
          "type": "string"
        },
        {
          "internalType": "string",
          "name": "articleContent",
          "type": "string"
        }
      ],
      "payable": false,
      "stateMutability": "view",
      "type": "function"
    },
    {
      "constant": true,
      "inputs": [],
      "name": "articlesCount",
      "outputs": [
        {
          "internalType": "uint256",
          "name": "",
          "type": "uint256"
        }
      ],
      "payable": false,
      "stateMutability": "view",
      "type": "function"
    },
    {
      "constant": true,
      "inputs": [
        {
          "internalType": "address",
          "name": "",
          "type": "address"
        }
      ],
      "name": "listProducers",
      "outputs": [
        {
          "internalType": "bool",
          "name": "",
          "type": "bool"
        }
      ],
      "payable": false,
      "stateMutability": "view",
      "type": "function"
    },
    {
      "constant": true,
      "inputs": [
        {
          "internalType": "address",
          "name": "",
          "type": "address"
        }
      ],
      "name": "listSignatures",
      "outputs": [
        {
          "internalType": "bool",
          "name": "",
          "type": "bool"
        }
      ],
      "payable": false,
      "stateMutability": "view",
      "type": "function"
    },
    {
      "constant": true,
      "inputs": [
        {
          "internalType": "uint256",
          "name": "",
          "type": "uint256"
        }
      ],
      "name": "mandats",
      "outputs": [
        {
          "internalType": "uint256",
          "name": "id",
          "type": "uint256"
        },
        {
          "internalType": "string",
          "name": "mandatType",
          "type": "string"
        }
      ],
      "payable": false,
      "stateMutability": "view",
      "type": "function"
    },
    {
      "constant": true,
      "inputs": [],
      "name": "mandatsCount",
      "outputs": [
        {
          "internalType": "uint256",
          "name": "",
          "type": "uint256"
        }
      ],
      "payable": false,
      "stateMutability": "view",
      "type": "function"
    },
    {
      "constant": true,
      "inputs": [],
      "name": "name",
      "outputs": [
        {
          "internalType": "string",
          "name": "",
          "type": "string"
        }
      ],
      "payable": false,
      "stateMutability": "view",
      "type": "function"
    },
    {
      "constant": true,
      "inputs": [],
      "name": "newRevenuesTotal",
      "outputs": [
        {
          "internalType": "uint256",
          "name": "",
          "type": "uint256"
        }
      ],
      "payable": false,
      "stateMutability": "view",
      "type": "function"
    },
    {
      "constant": true,
      "inputs": [],
      "name": "oneHasSigned",
      "outputs": [
        {
          "internalType": "bool",
          "name": "",
          "type": "bool"
        }
      ],
      "payable": false,
      "stateMutability": "view",
      "type": "function"
    },
    {
      "constant": true,
      "inputs": [
        {
          "internalType": "uint256",
          "name": "",
          "type": "uint256"
        }
      ],
      "name": "producers",
      "outputs": [
        {
          "internalType": "uint256",
          "name": "id",
          "type": "uint256"
        },
        {
          "internalType": "string",
          "name": "name",
          "type": "string"
        },
        {
          "internalType": "uint256",
          "name": "producerShare",
          "type": "uint256"
        },
        {
          "internalType": "address",
          "name": "producerAddress",
          "type": "address"
        }
      ],
      "payable": false,
      "stateMutability": "view",
      "type": "function"
    },
    {
      "constant": true,
      "inputs": [],
      "name": "producersCount",
      "outputs": [
        {
          "internalType": "uint256",
          "name": "",
          "type": "uint256"
        }
      ],
      "payable": false,
      "stateMutability": "view",
      "type": "function"
    },
    {
      "constant": true,
      "inputs": [
        {
          "internalType": "uint256",
          "name": "",
          "type": "uint256"
        }
      ],
      "name": "revenues",
      "outputs": [
        {
          "internalType": "uint256",
          "name": "id",
          "type": "uint256"
        },
        {
          "internalType": "uint256",
          "name": "revenueAmount",
          "type": "uint256"
        },
        {
          "internalType": "uint256",
          "name": "revenueTimestamp",
          "type": "uint256"
        }
      ],
      "payable": false,
      "stateMutability": "view",
      "type": "function"
    },
    {
      "constant": true,
      "inputs": [],
      "name": "revenuesCount",
      "outputs": [
        {
          "internalType": "uint256",
          "name": "",
          "type": "uint256"
        }
      ],
      "payable": false,
      "stateMutability": "view",
      "type": "function"
    },
    {
      "constant": true,
      "inputs": [],
      "name": "revenuesTotal",
      "outputs": [
        {
          "internalType": "uint256",
          "name": "",
          "type": "uint256"
        }
      ],
      "payable": false,
      "stateMutability": "view",
      "type": "function"
    },
    {
      "constant": true,
      "inputs": [
        {
          "internalType": "uint256",
          "name": "",
          "type": "uint256"
        }
      ],
      "name": "signatures",
      "outputs": [
        {
          "internalType": "uint256",
          "name": "id",
          "type": "uint256"
        },
        {
          "internalType": "address",
          "name": "owner",
          "type": "address"
        }
      ],
      "payable": false,
      "stateMutability": "view",
      "type": "function"
    },
    {
      "constant": true,
      "inputs": [],
      "name": "signaturesCount",
      "outputs": [
        {
          "internalType": "uint256",
          "name": "",
          "type": "uint256"
        }
      ],
      "payable": false,
      "stateMutability": "view",
      "type": "function"
    },
    {
      "constant": false,
      "inputs": [
        {
          "internalType": "string",
          "name": "_name",
          "type": "string"
        },
        {
          "internalType": "uint256",
          "name": "_producerShare",
          "type": "uint256"
        }
      ],
      "name": "addProducer",
      "outputs": [],
      "payable": false,
      "stateMutability": "nonpayable",
      "type": "function"
    },
    {
      "constant": true,
      "inputs": [
        {
          "internalType": "uint256",
          "name": "producerID",
          "type": "uint256"
        }
      ],
      "name": "getProducer",
      "outputs": [
        {
          "internalType": "uint256",
          "name": "",
          "type": "uint256"
        },
        {
          "internalType": "string",
          "name": "",
          "type": "string"
        },
        {
          "internalType": "uint256",
          "name": "",
          "type": "uint256"
        },
        {
          "internalType": "address",
          "name": "",
          "type": "address"
        }
      ],
      "payable": false,
      "stateMutability": "view",
      "type": "function"
    },
    {
      "constant": false,
      "inputs": [
        {
          "internalType": "string",
          "name": "_mandatType",
          "type": "string"
        }
      ],
      "name": "addMandat",
      "outputs": [],
      "payable": false,
      "stateMutability": "nonpayable",
      "type": "function"
    },
    {
      "constant": false,
      "inputs": [
        {
          "internalType": "uint256",
          "name": "_revenueAmount",
          "type": "uint256"
        }
      ],
      "name": "addRevenue",
      "outputs": [],
      "payable": false,
      "stateMutability": "nonpayable",
      "type": "function"
    },
    {
      "constant": false,
      "inputs": [
        {
          "internalType": "string",
          "name": "articleTitle",
          "type": "string"
        },
        {
          "internalType": "string",
          "name": "articleContent",
          "type": "string"
        }
      ],
      "name": "addArticle",
      "outputs": [],
      "payable": false,
      "stateMutability": "nonpayable",
      "type": "function"
    },
    {
      "constant": true,
      "inputs": [],
      "name": "isProducer",
      "outputs": [
        {
          "internalType": "bool",
          "name": "",
          "type": "bool"
        }
      ],
      "payable": false,
      "stateMutability": "view",
      "type": "function"
    },
    {
      "constant": true,
      "inputs": [
        {
          "internalType": "address",
          "name": "user",
          "type": "address"
        }
      ],
      "name": "hasSigned",
      "outputs": [
        {
          "internalType": "bool",
          "name": "",
          "type": "bool"
        }
      ],
      "payable": false,
      "stateMutability": "view",
      "type": "function"
    },
    {
      "constant": false,
      "inputs": [],
      "name": "sign",
      "outputs": [],
      "payable": false,
      "stateMutability": "nonpayable",
      "type": "function"
    }
  ],
  "bytecode": "0x60806040526000600160006101000a81548160ff02191690831515021790555060006008556000600a553480156200003657600080fd5b506040518060400160405280600f81526020017f446170702050726f64756374696f6e000000000000000000000000000000000081525060009080519060200190620000849291906200008b565b506200013a565b828054600181600116156101000203166002900490600052602060002090601f016020900481019282601f10620000ce57805160ff1916838001178555620000ff565b82800160010185558215620000ff579182015b82811115620000fe578251825591602001919060010190620000e1565b5b5090506200010e919062000112565b5090565b6200013791905b808211156200013357600081600090555060010162000119565b5090565b90565b611a12806200014a6000396000f3fe608060405234801561001057600080fd5b50600436106101585760003560e01c80636ec67ec9116100c3578063bf6a14131161007c578063bf6a141314610951578063d293616d146109ad578063d76fc042146109cb578063d95894d8146109e9578063e53142e214610a39578063edcfafe614610a5757610158565b80636ec67ec9146106445780638be10194146107965780638daf85361461080b578063922cec191461082d5780639b68ade71461084b578063bb396f3c1461093357610158565b80633a510500116101155780633a510500146103cd5780633bbd42b6146104b55780633ecf962e146105115780634eb406761461052f5780635f515a3a146105f457806363ec512d1461061657610158565b806306fdde031461015d5780630be14062146101e057806314ef8a521461023c57806315956fc7146102ea5780632ca151221461030857806339b1cc1e14610312575b600080fd5b610165610b71565b6040518080602001828103825283818151815260200191508051906020019080838360005b838110156101a557808201518184015260208101905061018a565b50505050905090810190601f1680156101d25780820380516001836020036101000a031916815260200191505b509250505060405180910390f35b610222600480360360208110156101f657600080fd5b81019080803573ffffffffffffffffffffffffffffffffffffffff169060200190929190505050610c0f565b604051808215151515815260200191505060405180910390f35b6102686004803603602081101561025257600080fd5b8101908080359060200190929190505050610c2f565b6040518083815260200180602001828103825283818151815260200191508051906020019080838360005b838110156102ae578082015181840152602081019050610293565b50505050905090810190601f1680156102db5780820380516001836020036101000a031916815260200191505b50935050505060405180910390f35b6102f2610ceb565b6040518082815260200191505060405180910390f35b610310610cf1565b005b6103cb6004803603602081101561032857600080fd5b810190808035906020019064010000000081111561034557600080fd5b82018360208201111561035757600080fd5b8035906020019184600183028401116401000000008311171561037957600080fd5b91908080601f016020809104026020016040519081016040528093929190818152602001838380828437600081840152601f19601f820116905080830192505050505050509192919290505050610eda565b005b6103f9600480360360208110156103e357600080fd5b8101908080359060200190929190505050610f74565b60405180858152602001806020018481526020018373ffffffffffffffffffffffffffffffffffffffff1673ffffffffffffffffffffffffffffffffffffffff168152602001828103825285818151815260200191508051906020019080838360005b8381101561047757808201518184015260208101905061045c565b50505050905090810190601f1680156104a45780820380516001836020036101000a031916815260200191505b509550505050505060405180910390f35b6104f7600480360360208110156104cb57600080fd5b81019080803573ffffffffffffffffffffffffffffffffffffffff169060200190929190505050611071565b604051808215151515815260200191505060405180910390f35b610519611091565b6040518082815260200191505060405180910390f35b6105f26004803603604081101561054557600080fd5b810190808035906020019064010000000081111561056257600080fd5b82018360208201111561057457600080fd5b8035906020019184600183028401116401000000008311171561059657600080fd5b91908080601f016020809104026020016040519081016040528093929190818152602001838380828437600081840152601f19601f82011690508083019250505050505050919291929080359060200190929190505050611097565b005b6105fc6112cb565b604051808215151515815260200191505060405180910390f35b6106426004803603602081101561062c57600080fd5b8101908080359060200190929190505050611337565b005b6107946004803603604081101561065a57600080fd5b810190808035906020019064010000000081111561067757600080fd5b82018360208201111561068957600080fd5b803590602001918460018302840111640100000000831117156106ab57600080fd5b91908080601f016020809104026020016040519081016040528093929190818152602001838380828437600081840152601f19601f8201169050808301925050505050505091929192908035906020019064010000000081111561070e57600080fd5b82018360208201111561072057600080fd5b8035906020019184600183028401116401000000008311171561074257600080fd5b91908080601f016020809104026020016040519081016040528093929190818152602001838380828437600081840152601f19601f820116905080830192505050505050509192919290505050611447565b005b6107c2600480360360208110156107ac57600080fd5b81019080803590602001909291905050506115e9565b604051808381526020018273ffffffffffffffffffffffffffffffffffffffff1673ffffffffffffffffffffffffffffffffffffffff1681526020019250505060405180910390f35b61081361162d565b604051808215151515815260200191505060405180910390f35b610835611640565b6040518082815260200191505060405180910390f35b6108776004803603602081101561086157600080fd5b8101908080359060200190929190505050611646565b60405180858152602001806020018481526020018373ffffffffffffffffffffffffffffffffffffffff1673ffffffffffffffffffffffffffffffffffffffff168152602001828103825285818151815260200191508051906020019080838360005b838110156108f55780820151818401526020810190506108da565b50505050905090810190601f1680156109225780820380516001836020036101000a031916815260200191505b509550505050505060405180910390f35b61093b61172e565b6040518082815260200191505060405180910390f35b6109936004803603602081101561096757600080fd5b81019080803573ffffffffffffffffffffffffffffffffffffffff169060200190929190505050611734565b604051808215151515815260200191505060405180910390f35b6109b56117a2565b6040518082815260200191505060405180910390f35b6109d36117a8565b6040518082815260200191505060405180910390f35b610a15600480360360208110156109ff57600080fd5b81019080803590602001909291905050506117ae565b60405180848152602001838152602001828152602001935050505060405180910390f35b610a416117d8565b6040518082815260200191505060405180910390f35b610a8360048036036020811015610a6d57600080fd5b81019080803590602001909291905050506117de565b604051808481526020018060200180602001838103835285818151815260200191508051906020019080838360005b83811015610acd578082015181840152602081019050610ab2565b50505050905090810190601f168015610afa5780820380516001836020036101000a031916815260200191505b50838103825284818151815260200191508051906020019080838360005b83811015610b33578082015181840152602081019050610b18565b50505050905090810190601f168015610b605780820380516001836020036101000a031916815260200191505b509550505050505060405180910390f35b60008054600181600116156101000203166002900480601f016020809104026020016040519081016040528092919081815260200182805460018160011615610100020316600290048015610c075780601f10610bdc57610100808354040283529160200191610c07565b820191906000526020600020905b815481529060010190602001808311610bea57829003601f168201915b505050505081565b600d6020528060005260406000206000915054906101000a900460ff1681565b6005602052806000526040600020600091509050806000015490806001018054600181600116156101000203166002900480601f016020809104026020016040519081016040528092919081815260200182805460018160011615610100020316600290048015610ce15780601f10610cb657610100808354040283529160200191610ce1565b820191906000526020600020905b815481529060010190602001808311610cc457829003601f168201915b5050505050905082565b60095481565b6001600260003373ffffffffffffffffffffffffffffffffffffffff1673ffffffffffffffffffffffffffffffffffffffff16815260200190815260200160002060006101000a81548160ff0219169083151502179055610d5157600080fd5b600f6000815480929190600101919050555060018060006101000a81548160ff0219169083151502179055506040518060400160405280600f5481526020013373ffffffffffffffffffffffffffffffffffffffff16815250600e6000600f5481526020019081526020016000206000820151816000015560208201518160010160006101000a81548173ffffffffffffffffffffffffffffffffffffffff021916908373ffffffffffffffffffffffffffffffffffffffff1602179055509050506001600d60003373ffffffffffffffffffffffffffffffffffffffff1673ffffffffffffffffffffffffffffffffffffffff16815260200190815260200160002060006101000a81548160ff0219169083151502179055507f7734f4cbb5990158a1cb29b4d4a540017265faae9942fc28fed6f51157be96cd600f5433604051808381526020018273ffffffffffffffffffffffffffffffffffffffff1673ffffffffffffffffffffffffffffffffffffffff1681526020019250505060405180910390a1565b6006600081548092919060010191905055506040518060400160405280600654815260200182815250600560006006548152602001908152602001600020600082015181600001556020820151816001019080519060200190610f3e929190611938565b509050506006547f6ca3a65978dcb1dac807ab70127707e9de68e905f32dce40db01af62a9322f7d60405160405180910390a250565b60006060600080600060036000878152602001908152602001600020905080600001548160010182600201548360030160009054906101000a900473ffffffffffffffffffffffffffffffffffffffff16828054600181600116156101000203166002900480601f01602080910402602001604051908101604052809291908181526020018280546001816001161561010002031660029004801561105a5780601f1061102f5761010080835404028352916020019161105a565b820191906000526020600020905b81548152906001019060200180831161103d57829003601f168201915b505050505092509450945094509450509193509193565b60026020528060005260406000206000915054906101000a900460ff1681565b600f5481565b60008251116110a557600080fd5b600081116110b257600080fd5b600460008154809291906001019190505550604051806080016040528060045481526020018381526020018281526020013373ffffffffffffffffffffffffffffffffffffffff16815250600360006004548152602001908152602001600020600082015181600001556020820151816001019080519060200190611138929190611938565b506040820151816002015560608201518160030160006101000a81548173ffffffffffffffffffffffffffffffffffffffff021916908373ffffffffffffffffffffffffffffffffffffffff1602179055509050506001600260003373ffffffffffffffffffffffffffffffffffffffff1673ffffffffffffffffffffffffffffffffffffffff16815260200190815260200160002060006101000a81548160ff0219169083151502179055507fb2ad2a557c1e5c409b8f438c834e7d7f05428b45975aab0ee496bf16b390c43c60045483833360405180858152602001806020018481526020018373ffffffffffffffffffffffffffffffffffffffff1673ffffffffffffffffffffffffffffffffffffffff168152602001828103825285818151815260200191508051906020019080838360005b8381101561128a57808201518184015260208101905061126f565b50505050905090810190601f1680156112b75780820380516001836020036101000a031916815260200191505b509550505050505060405180910390a15050565b600060011515600260003373ffffffffffffffffffffffffffffffffffffffff1673ffffffffffffffffffffffffffffffffffffffff16815260200190815260200160002060009054906101000a900460ff161515141561132f5760019050611334565b600090505b90565b6000811161134457600080fd5b600a6000815480929190600101919050555080600854016009819055506009546008819055506040518060600160405280600a5481526020018281526020014281525060076000600a5481526020019081526020016000206000820151816000015560208201518160010155604082015181600201559050507fd1160c528182b73199ffcc5f84ee4a10acbe4009e701a9f63cc550df5bb97a13600a54826008543342604051808681526020018581526020018481526020018373ffffffffffffffffffffffffffffffffffffffff1673ffffffffffffffffffffffffffffffffffffffff1681526020018281526020019550505050505060405180910390a150565b600c600081548092919060010191905055506040518060600160405280600c54815260200183815260200182815250600b6000600c5481526020019081526020016000206000820151816000015560208201518160010190805190602001906114b1929190611938565b5060408201518160020190805190602001906114ce929190611938565b509050507f6b37acb389598eb4f62b80c6ea9fa4af633523d951e76e7a42cb90a5a3ceafcb600c548383604051808481526020018060200180602001838103835285818151815260200191508051906020019080838360005b83811015611542578082015181840152602081019050611527565b50505050905090810190601f16801561156f5780820380516001836020036101000a031916815260200191505b50838103825284818151815260200191508051906020019080838360005b838110156115a857808201518184015260208101905061158d565b50505050905090810190601f1680156115d55780820380516001836020036101000a031916815260200191505b509550505050505060405180910390a15050565b600e6020528060005260406000206000915090508060000154908060010160009054906101000a900473ffffffffffffffffffffffffffffffffffffffff16905082565b600160009054906101000a900460ff1681565b600a5481565b6003602052806000526040600020600091509050806000015490806001018054600181600116156101000203166002900480601f0160208091040260200160405190810160405280929190818152602001828054600181600116156101000203166002900480156116f85780601f106116cd576101008083540402835291602001916116f8565b820191906000526020600020905b8154815290600101906020018083116116db57829003601f168201915b5050505050908060020154908060030160009054906101000a900473ffffffffffffffffffffffffffffffffffffffff16905084565b600c5481565b600060011515600d60008473ffffffffffffffffffffffffffffffffffffffff1673ffffffffffffffffffffffffffffffffffffffff16815260200190815260200160002060009054906101000a900460ff1615151415611798576001905061179d565b600090505b919050565b60065481565b60085481565b60076020528060005260406000206000915090508060000154908060010154908060020154905083565b60045481565b600b602052806000526040600020600091509050806000015490806001018054600181600116156101000203166002900480601f0160208091040260200160405190810160405280929190818152602001828054600181600116156101000203166002900480156118905780601f1061186557610100808354040283529160200191611890565b820191906000526020600020905b81548152906001019060200180831161187357829003601f168201915b505050505090806002018054600181600116156101000203166002900480601f01602080910402602001604051908101604052809291908181526020018280546001816001161561010002031660029004801561192e5780601f106119035761010080835404028352916020019161192e565b820191906000526020600020905b81548152906001019060200180831161191157829003601f168201915b5050505050905083565b828054600181600116156101000203166002900490600052602060002090601f016020900481019282601f1061197957805160ff19168380011785556119a7565b828001600101855582156119a7579182015b828111156119a657825182559160200191906001019061198b565b5b5090506119b491906119b8565b5090565b6119da91905b808211156119d65760008160009055506001016119be565b5090565b9056fea265627a7a723158202f40e0684d7409451095f310ba7a5f5f0b51019374907858ed38fc28af5758cd64736f6c634300050c0032",
  "source": "pragma solidity ^0.5.12;\n\ncontract Production {\n\nstring public name;\nbool public oneHasSigned = false;\n\n\n\n    // Model a Producer\n    struct Producer {\n        uint id;\n        string name;\n        uint producerShare;\n        address producerAddress;\n    }\n\n    // Model a Mandat\n    struct Mandat {\n        uint id;\n        string mandatType;\n    }\n\n\n    // Model a Revenue\n    struct Revenue {\n        uint id;\n        uint revenueAmount;\n        uint revenueTimestamp;\n    }\n\n    // Model an Article\n    struct Article {\n        uint id;\n        string articleTitle;\n        string articleContent;\n    }\n\n    // Model a Signature\n    struct Signature {\n        uint id;\n        address owner;\n    }\n\n\n\n    // Store accounts that have been added\n    mapping(address => bool) public listProducers;\n    // Store Producers\n    // Fetch Producers\n    mapping(uint => Producer) public producers;\n    // Store Producers Count\n    uint public producersCount;\n    //addedProducer event\n    event addedProducerEvent (\n        uint id,\n        string name,\n        uint producerShare,\n        address owner\n    );\n\n    // Store Mandats\n    // Fetch Mandats\n    mapping(uint => Mandat) public mandats;\n    // Store Mandats Count\n    uint public mandatsCount;\n    //addedMandat event\n    event addedMandatEvent (\n        uint indexed mandatsCount\n    );\n\n    // Store Revenues\n    // Fetch Revenues\n    mapping(uint => Revenue) public revenues;\n    // store Revenues Total\n    uint public revenuesTotal = 0;\n    uint public newRevenuesTotal;\n    // Store Revenues Count\n    uint public revenuesCount = 0;\n    //addedRevenue event\n    event addedRevenueEvent (\n        uint id,\n        uint _revenueAmount,\n        uint revenuesTotal,\n        address owner, \n        uint revenueTimestamp\n    );\n\n    // Store Articles\n    // Fetch Articles\n    mapping(uint => Article) public articles;\n    // Store Article Count\n    uint public articlesCount;\n     //addedArticle event\n    event addedArticleEvent (\n        uint id,\n        string articleName,\n        string articleContent\n\n    );\n    \n\n    // Store accounts that have signed\n    mapping(address => bool) public listSignatures;\n    // Store Signatures\n    // Fetch Signatures\n    mapping(uint => Signature) public signatures;\n    // Store Producers Count\n    uint public signaturesCount;\n    //addedProducer event\n    event addedSignatureEvent (\n        uint id,\n        address owner\n    );\n\n\n    constructor () public {\n        name = \"Dapp Production\";\n\n        //addProducer(\"Steven Spielberg\", 50);\n        //addProducer(\"Producteur 2\", 50);\n        //addMandat(\"Droits TV\")\n        //addRevenue(\"5000\")\n    }\n\n    function addProducer (string memory _name, uint _producerShare) public {\n          // Require a valid name\n        require(bytes(_name).length > 0);\n        // Require a valid producerShare\n        require(_producerShare > 0);\n        producersCount ++;\n        producers[producersCount] = Producer(producersCount, _name, _producerShare, msg.sender);\n        listProducers[msg.sender] = true;\n        //trigger added producer event\n        emit addedProducerEvent(producersCount, _name, _producerShare, msg.sender);\n\n\n    }\n\n    function getProducer(uint producerID) public view\n    returns (uint, string memory, uint, address) {\n\n        Producer storage producer = producers[producerID];\n        return (producer.id, producer.name, producer.producerShare, producer.producerAddress);\n    }\n\n\n    function addMandat (string memory _mandatType) public {\n        mandatsCount ++;\n        mandats[mandatsCount] = Mandat(mandatsCount, _mandatType);\n        //trigger added mandat event\n        emit addedMandatEvent(mandatsCount);\n\n    }\n\n    function addRevenue (uint _revenueAmount) public {\n        // Require a valid _revenueAmount\n        require(_revenueAmount > 0);\n        revenuesCount ++;\n        newRevenuesTotal = revenuesTotal + _revenueAmount;\n        revenuesTotal = newRevenuesTotal;\n        revenues[revenuesCount] = Revenue(revenuesCount, _revenueAmount, block.timestamp);\n        //trigger added revenue event\n        emit addedRevenueEvent(revenuesCount, _revenueAmount, revenuesTotal, msg.sender, block.timestamp);\n\n    }\n\n    function addArticle (string memory articleTitle, string memory articleContent) public {\n        articlesCount ++;\n        articles[articlesCount] = Article(articlesCount, articleTitle, articleContent);\n        //trigger added article event\n        emit addedArticleEvent(articlesCount, articleTitle, articleContent);\n\n    }\n\n    //Fonction qui vrifie qu'un utilisateur est un producteur\n    function isProducer() public view returns(bool) {\n        if (listProducers[msg.sender] == true) {\n        return true;\n        } else {\n            return false;\n        }\n    }\n\n    \n    \n    //Fonction qui vrifie qu'un utilisateur a signe\n    function hasSigned(address user) public view returns(bool) {\n        if (listSignatures[user] == true) {\n        return true;\n        } else {\n            return false;\n        }\n    }\n\n\n     function sign () public {\n        require(listProducers[msg.sender] = true);\n        signaturesCount ++;\n        oneHasSigned = true;\n        signatures[signaturesCount] = Signature(signaturesCount, msg.sender);\n        listSignatures[msg.sender] = true;\n        \n        //trigger added article event\n        emit addedSignatureEvent(signaturesCount, msg.sender);\n\n     }\n}",
  "sourcePath": "/home/bobby/vivien/productionapp/contracts/Production.sol",
  "compiler": {
    "name": "solc",
    "version": "0.5.12+commit.7709ece9.Emscripten.clang"
  },
  "schemaVersion": "3.0.20",
  "updatedAt": "2020-02-05T15:34:34.829Z",
  "networkType": "ethereum",
  "devdoc": {
    "methods": {}
  },
  "userdoc": {
    "methods": {}
  }
}